:100000000C9469000C9491000C9491000C94910054
:100010000C9491000C9491000C9491000C9491001C
:100020000C9491000C9491000C9491000C94840613
:100030000C9491000C9491000C9491000C949100FC
:100040000C94E2050C9491000C9452060C942C062E
:100050000C9491000C9491000C9491000C949100DC
:100060000C9491000C949100AA09CB09EE09130A93
:10007000360A590A5C0A0000000023002600290005
:100080000000000800020100000304070000000057
:100090000000000000000000250028002B000000E8
:1000A0000000240027002A000404040404040404BB
:1000B0000202020202020303030303030102040813
:1000C00010204080010204081020010204081020C2
:1000D000450711241FBECFEFD8E0DEBFCDBF11E032
:1000E000A0E0B1E0E0E6FDE102C005900D92A4368B
:1000F000B107D9F722E0A4E6B1E001C01D92A53511
:10010000B207E1F710E0C9E6D0E004C02197FE0194
:100110000E94950CC836D107C9F70E94A6070C9417
:10012000AE0E0C94000090E0FC01E454FF4F2491CB
:10013000FC01E855FF4F8491882399F090E0880FE7
:10014000991FFC01E256FF4FA591B491FC01EC56BA
:10015000FF4F859194918FB7F894EC91E22BEC933B
:100160008FBF0895833081F028F4813099F0823078
:10017000A1F008958730A9F08830B9F08430D1F427
:10018000809180008F7D03C0809180008F77809365
:100190008000089584B58F7702C084B58F7D84BDBB
:1001A00008958091B0008F7703C08091B0008F7D5B
:1001B0008093B0000895CF93DF93282F30E0F901AA
:1001C000E058FF4F8491F901E454FF4FD491F901B5
:1001D000E855FF4FC491CC2391F081110E94B200E9
:1001E000EC2FF0E0EE0FFF1FEA58FF4FA591B491FE
:1001F000EC91ED2381E090E021F480E002C080E00A
:1002000090E0DF91CF9108951F93CF93DF93282F34
:1002100030E0F901E058FF4F8491F901E454FF4FB9
:10022000D491F901E855FF4FC491CC23C9F0162FA2
:1002300081110E94B200EC2FF0E0EE0FFF1FEC5690
:10024000FF4FA591B4918FB7F894111105C09C91FF
:10025000ED2FE095E92302C0EC91ED2BEC938FBFDD
:10026000DF91CF911F9108958E3008F08E508770E6
:10027000806480937C0080917A00806480937A000F
:1002800080917A0086FDFCCF8091780020917900E2
:1002900090E0922B08953FB7F8948091920190914D
:1002A0009301A0919401B091950126B5A89B05C03A
:1002B0002F3F19F00196A11DB11D3FBFBA2FA92FE5
:1002C000982F8827820F911DA11DB11DBC01CD0162
:1002D00042E0660F771F881F991F4A95D1F708954E
:1002E0008F929F92AF92BF92CF92DF92EF92FF9246
:1002F0006B017C010E944B014B015C01C114D104D4
:10030000E104F104F1F00E944B01DC01CB018819FA
:100310009909AA09BB09883E9340A105B10570F36C
:1003200021E0C21AD108E108F10888EE880E83E0C6
:10033000981EA11CB11CC114D104E104F10419F7E9
:10034000DDCFFF90EF90DF90CF90BF90AF909F9068
:100350008F900895CF92DF92EF92FF920F931F93A9
:10036000CF93DF936C017A018B01C0E0D0E0CE1512
:10037000DF0589F0D8016D918D01D601ED91FC91D9
:100380000190F081E02DC6010995892B11F47E01C1
:1003900002C02196ECCFC701DF91CF911F910F9141
:1003A000FF90EF90DF90CF900895089580E090E067
:1003B0000895FC01538D448D252F30E0842F90E06B
:1003C000821B930B541710F0CF9608950197089550
:1003D000FC01918D828D981761F0828DDF01A80F4D
:1003E000B11D5D968C91928D9F5F9F73928F90E06F
:1003F00008958FEF9FEF0895FC01918D828D9817DE
:1004000031F0828DE80FF11D858D90E008958FEF1A
:100410009FEF0895FC01918D228D892F90E0805CE3
:100420009F4F821B91098F739927089586E991E068
:100430000E940A0221E0892B09F420E0822F08950E
:10044000FC01848DDF01A80FB11DA35ABF4F2C9171
:10045000848D90E001968F739927848FA689B78940
:100460002C93A089B1898C9180648C93938D848D19
:10047000981306C00288F389E02D80818F7D8083E8
:100480000895EF92FF920F931F93CF93DF93EC01A8
:1004900081E0888F9B8D8C8D981305C0E889F98940
:1004A000808185FD24C0F62E0B8D10E00F5F1F4F5D
:1004B0000F731127E02E8C8DE8120CC00FB607FCCD
:1004C000FACFE889F989808185FFF5CFCE010E94B6
:1004D0002002F1CF8B8DFE01E80FF11DE35AFF4F93
:1004E000F0820B8FEA89FB898081806207C0EE89E8
:1004F000FF896083E889F98980818064808381E055
:1005000090E0DF91CF911F910F91FF90EF900895B0
:10051000CF93DF93EC01888D8823C9F0EA89FB89AA
:10052000808185FD05C0A889B9898C9186FD0FC0A1
:100530000FB607FCF5CF808185FFF2CFA889B98976
:100540008C9185FFEDCFCE010E942002E7CFDF9195
:10055000CF91089580E090E0892B29F00E94160247
:1005600081110C9400000895CF92DF92EF92FF92D8
:10057000CF93DF93EC01603282E078070CF03DC04E
:1005800077FD06C0653B71052CF064EB70E002C09E
:1005900060E070E0898128E830E06901C81AD1087C
:1005A00087FDD394CC0CDD1CCC0CDD1C0D2C000C79
:1005B000EE08FF088A8128E532E0281B310987FD13
:1005C0003395220F331F220F331FC901330FAA0B9C
:1005D000BB0B9C01AD012C193D094E095F09DB01E4
:1005E0000E94190C24EB30E040E050E00E94EF0B39
:1005F000C20ED31EE41EF51EB60188818C3080F534
:10060000998148E850E0491B510997FD5395440FE3
:10061000551F440F551F6417750784F09A8128E50C
:1006200032E0291B310997FD3395220F331F220F2A
:10063000331FAB01261737070CF4A90142505109AB
:10064000440F551F2FB7F89490E0FC01EE0FFF1FE9
:100650008E0F9F1FFC01EA59FE4F528341832FBF2B
:10066000DF91CF91FF90EF90DF90CF9008950F939F
:100670001F93CF93DF931F92CDB7DEB78C01DC01C0
:100680008C918C3008F055C0862F69830E949300AE
:10069000F8018081E82FF0E09F01220F331FE20F65
:1006A000F31FEA59FE4F69816F739081907C692B2B
:1006B0006083D80111961C92119712961C926CE0DF
:1006C0000E94890CBCE08B9FB001112440E050E0F7
:1006D0009A01260F371FF901EE0FFF1F2E0F3F1F44
:1006E000F901EA59FE4F908196FD16C04F5F5F4FAA
:1006F0004C30510569F781110FC01092800082E0E3
:10070000809381001092850010928400B19A8091AC
:100710006F00826080936F00D801EC91F0E0CF0110
:10072000880F991FE80FF91FEA59FE4F80818064F6
:100730008083F80180810F90DF91CF911F910F91FD
:100740000895FC01909165019C30A0F481E0890F2F
:10075000809365019083892F90E0FC01EE0FFF1FCD
:100760008E0F9F1FFC01EA59FE4F88EB9BE092839E
:10077000818308958FEF808308958F929F92AF9227
:10078000BF92CF92DF92EF92FF920F931F93CF937E
:10079000DF9300D01F92CDB7DEB78C0149835A8317
:1007A0006B838B8128E532E06901C81AD10887FD87
:1007B000D394CC0CDD1CCC0CDD1C0D2C000CEE08F5
:1007C000FF088A8128E830E04901881A910887FDEE
:1007D0009394880C991C880C991C092C000CAA086D
:1007E000BB0889818F3FC1F090E0FC01EE0FFF1F35
:1007F0008E0F9F1FFC01EA59FE4F2181328143E099
:10080000220F331F4A95E1F754E0369527955A9504
:10081000E1F72E5F3F4F02C020E030E02F5F3F4FF7
:10082000C901330FAA0BBB0B9C01AD012819390973
:100830004A095B09A4EBB0E00E940E0CA7019601E7
:10084000281939094A095B090E94EF0B2017310763
:1008500024F4B9016F5F7F4F06C0021713074CF4F1
:10086000B90161507109CE0101960E94B40280E085
:1008700001C081E00F900F900F90DF91CF911F91F9
:100880000F91FF90EF90DF90CF90BF90AF909F902F
:100890008F900895EF92FF920F931F93CF93DF9362
:1008A0007B018A01E901BC018EE492E00E94B4025E
:1008B000B7018BE492E00E94B402B80188E492E0B0
:1008C0000E94B402BE0185E492E00E94B40264E199
:1008D00070E080E090E0DF91CF911F910F91FF9049
:1008E000EF900C947001CF92DF92EF92FF920F93F2
:1008F0001F93CF93DF938C01C0E0D0E06B01770FA3
:10090000EE08FF08C017D10794F461E082E00E946E
:100910000401C701B6010E94700160E082E00E94FC
:100920000401C701B6010E9470012196EBCFDF914F
:10093000CF911F910F91FF90EF90DF90CF9008958E
:1009400060E08BE00C940401AF92BF92CF92DF92F3
:10095000EF92FF920F931F93CF93DF930E94A00417
:1009600084E10E9434017C0185E10E9434015C0134
:100970008EE00E9434018C018FE00E943401EC0172
:1009800023EB30E0D7010E949B0CCC24CA9423E0D7
:10099000D22EE12CF12CA70196010E94EF0B30938F
:1009A00042022093410223EB30E0D5010E949B0CD0
:1009B000A70196010E94EF0B30933E0220933D0267
:1009C00023EB30E0D8010E949B0CA70196010E9406
:1009D000EF0B30933A022093390223E730E0DE0137
:1009E0000E949B0CA70196010E94EF0BDA01C9013E
:1009F0000596A11DB11D9093360280933502DF91BB
:100A0000CF911F910F91FF90EF90DF90CF90BF900B
:100A1000AF900895009769F0FC0101900020E9F77C
:100A20003197AF01481B590BBC0186E991E00C944A
:100A3000AA0180E090E00895CF93DF93FC01448108
:100A400055816081718186E991E00E94AA01EC01E3
:100A500081E491E00E940A058C0F9D1FDF91CF91E8
:100A600008950E94990E0F931F93CF93DF93EC018B
:100A700088819981009729F02A813B8126173707C1
:100A800088F48B016F5F7F4F0E94CF0D009761F05C
:100A9000998388831B830A832C813D81232B11F446
:100AA000FC01108281E001C080E0DF91CF911F91B5
:100AB0000F910895CF92DF92EF92FF920F931F93C1
:100AC000CF93DF93CDB7DEB728970FB6F894DEBF8C
:100AD0000FBECDBF8C01CB014AE09E012F5F3F4F7F
:100AE0006901B9010E94BA0BF60101900020E9F7F3
:100AF0003197EC19FD09D8011496ED90FC901597EB
:100B0000309729F1EE0EFF1EB701C8010E94330590
:100B1000F80120813181882369F084819581B601B3
:100B2000820F931F0E94A70ED8011596FC92EE9299
:100B300014970DC02115310519F0C9010E94370D18
:100B4000F801118210821582148213821282C80168
:100B500028960FB6F894DEBF0FBECDBFDF91CF91C0
:100B60001F910F91FF90EF90DF90CF900895EF923B
:100B7000FF920F931F93CF93DF93EC017B018A01C8
:100B8000BA010E9433052881398181110DC02115D8
:100B9000310519F0C9010E94370D198218821D8292
:100BA0001C821B821A8206C01D830C83B701C901F7
:100BB0000E94A70ECE01DF91CF911F910F91FF9060
:100BC000EF9008951F920F920FB60F9211242F935A
:100BD0003F938F939F93AF93BF9380918E0190919A
:100BE0008F01A0919001B091910130918D0123E08E
:100BF000230F2D3720F40196A11DB11D05C026E855
:100C0000230F0296A11DB11D20938D0180938E01AB
:100C100090938F01A0939001B093910180919201E4
:100C200090919301A0919401B09195010196A11D1D
:100C3000B11D8093920190939301A0939401B0937E
:100C40009501BF91AF919F918F913F912F910F90FF
:100C50000FBE0F901F9018951F920F920FB60F9214
:100C600011242F933F934F935F936F937F938F93B1
:100C70009F93AF93BF93EF93FF9386E991E00E9418
:100C80002002FF91EF91BF91AF919F918F917F9142
:100C90006F915F914F913F912F910F900FBE0F90E9
:100CA0001F9018951F920F920FB60F9211242F9339
:100CB0008F939F93EF93FF93E091A601F091A7018B
:100CC0008081E091AC01F091AD0182FD12C0908174
:100CD0008091AF018F5F8F732091B001821751F027
:100CE000E091AF01F0E0EA56FE4F958F8093AF019F
:100CF00001C08081FF91EF919F918F912F910F9073
:100D00000FBE0F901F9018951F920F920FB60F9263
:100D100011242F933F934F935F936F937F938F9300
:100D20009F93AF93BF93EF93FF938091640187FFED
:100D300005C010928500109284001BC020916401B0
:100D4000022E000C330B8091650190E028173907C3
:100D500084F480916401082E000C990BFC01EE0FC5
:100D6000FF1F8E0F9F1FFC01EA59FE4F808186FDF9
:100D700015C0809164018F5F8093640120916401AC
:100D8000022E000C330B8091650190E02817390783
:100D9000C4F4809164018C3064F113C080916401CB
:100DA000082E000C990BFC01EE0FFF1F8E0F9F1FEA
:100DB000FC01EA59FE4F808160E08F730E940401BC
:100DC000D8CF8091840090918500049680349C490E
:100DD00018F480E49CE905C080918400909185001E
:100DE000049690938900809388008FEF809364012C
:100DF0003BC0209184003091850080916401082ED1
:100E0000000C990BFC01EE0FFF1F8E0F9F1FFC01C2
:100E1000EA59FE4F81819281820F931F909389003E
:100E20008093880080916401082E000C990BFC01CE
:100E3000EE0FFF1F8E0F9F1FFC01EA59FE4F8081AE
:100E400086FF12C080916401082E000C990BFC01F2
:100E5000EE0FFF1F8E0F9F1FFC01EA59FE4F80818E
:100E600061E08F730E940401FF91EF91BF91AF91F8
:100E70009F918F917F916F915F914F913F912F91B2
:100E80000F900FBE0F901F901895E6E9F1E01382C6
:100E9000128288EE93E0A0E0B0E084839583A6837D
:100EA000B78383E391E09183808385EC90E095871D
:100EB000848784EC90E09787868780EC90E0918B24
:100EC000808B81EC90E0938B828B82EC90E0958B11
:100ED000848B86EC90E0978B868B118E128E138E0E
:100EE000148E8EE492E00E94A1038BE492E00E94B3
:100EF000A10388E492E00E94A10385E492E00E94AD
:100F0000A103809144028093430280914102909119
:100F100042029093400280933F0280913D02909163
:100F20003E0290933C0280933B0280913902909163
:100F30003A02909338028093370280913502909163
:100F4000360290933402809333020895CF93DF9357
:100F5000CDB7DEB7A9970FB6F894DEBF0FBECDBFF1
:100F6000789484B5826084BD84B5816084BD85B584
:100F7000826085BD85B5816085BD80916E00816090
:100F800080936E0010928100809181008260809336
:100F90008100809181008160809381008091800038
:100FA0008160809380008091B10084608093B10063
:100FB0008091B00081608093B00080917A0084605D
:100FC00080937A0080917A00826080937A00809189
:100FD0007A00816080937A0080917A0080688093A3
:100FE0007A001092C100E091A601F091A70182E081
:100FF0008083E091A201F091A3011082E091A4010D
:10100000F091A5018FEC80831092AE01E091AA01CE
:10101000F091AB0186E08083E091A801F091A901F5
:10102000808180618083E091A801F091A901808195
:1010300088608083E091A801F091A9018081806897
:101040008083E091A801F091A90180818F7D808348
:1010500061E08BE00E94040165E070E08EE492E0C4
:101060000E94370366E070E08BE492E00E94370351
:1010700069E070E088E492E00E9437036AE070E083
:1010800085E492E00E9437038BE00E94930082E0A7
:101090000E94930084E00E94930083E00E949300EA
:1010A00087E00E94930088E00E9493008CE00E94F9
:1010B000930061E084E00E94040161E083E00E940B
:1010C000040161E087E00E94040161E088E00E9481
:1010D000040161E08CE00E9404010E94A4040E94CB
:1010E000A00440914E0250914F02609150028091B5
:1010F0004102909142020E94BD03E82E40914B02B2
:1011000050914C0260914D0280913D0290913E02BF
:101110000E94BD03F82E409148025091490260910F
:101120004A028091390290913A020E94BD03082F31
:1011300040914502509146026091470280913502EC
:10114000909136020E94BD03182FEE2021F0FF205F
:1011500011F0011101C010E062E370E080E090E066
:101160000E947001112309F4BCCF62E370E085E0B6
:1011700090E00E947304BAE04B2E512C612C712C2C
:101180000E94A00480E10E94DB0099249394892BA3
:1011900009F4912C90928C0181E10E94DB0021E006
:1011A000892B09F420E0209344020E94A0040E94AD
:1011B000A404E0904102F090420280913F0290919D
:1011C0004002C0903D02D0903E02A0903902B09003
:1011D0003A020091350210913602E816F90659F0EC
:1011E0009801A501B601C7010E944A04F09240028D
:1011F000E0923F0235C080913B0290913C02C816BC
:10120000D90659F09801A501B601C7010E944A0408
:10121000D0923C02C0923B0223C080913702909151
:101220003802A816B90659F09801A501B601C70100
:101230000E944A04B0923802A092370211C08091F5
:101240003302909134020817190751F09801A50153
:10125000B601C7010E944A0410933402009333027E
:1012600080912801981609F468C091105AC068EC62
:1012700070E081E090E00E94730480918A01909177
:101280008B01019690938B0180938A0184E491E015
:101290000E940A05C0908A01D0908B010D2C000C91
:1012A000EE08FF08F7FE26C0E0919601F091970145
:1012B0000190F081E02D6DE286E991E00995222709
:1012C0003327A9012C193D094E095F0919A28E0186
:1012D0000F5D1F4FCA01B901A30192010E94580C72
:1012E000605DD8016E938D012115310541055105D1
:1012F00089F715C0A701960119A28E010F5D1F4F36
:10130000CA01B901A30192010E94580C605DF80165
:1013100062938F01211531054105510589F7C801F7
:1013200002C08DE491E00E940A0581E491E00E94F0
:101330000A0580918C0180932801E0918A01F09147
:101340008B013197E730F10508F033C1EC5CFF4FBA
:101350000C94950C809141029091420290931F0150
:1013600080931E0180913D0290913E029093150161
:10137000809314018091390290913A0290930B016D
:1013800080930A0180913502909136029093010179
:10139000809300010EC1809141029091420290938E
:1013A00021018093200180913D0290913E02909313
:1013B0001701809316018091390290913A0290931F
:1013C0000D0180930C01809135029091360290932B
:1013D00003018093020160E084E022C08091410219
:1013E00090914202909323018093220180913D02CB
:1013F00090913E02909319018093180180913902D7
:1014000090913A0290930F0180930E0180913502E2
:1014100090913602909305018093040160E083E08F
:101420000E940401C6C080914102909142029093B3
:1014300025018093240180913D0290913E0290937A
:101440001B0180931A018091390290913A02909386
:101450001101809310018091350290913602909392
:1014600007018093060160E087E0DACF80914102B6
:1014700090914202909327018093260180913D0232
:1014800090913E0290931D0180931C01809139023E
:1014900090913A029093130180931201809135024A
:1014A00090913602909309018093080160E088E0F2
:1014B000B7CF60E08CE0B4CF03E010E060E084E000
:1014C0000E94040160E083E00E94040160E087E084
:1014D0000E94040160E088E00E94040160E08CE06A
:1014E0000E94040168EC70E080E090E00E947001CE
:1014F00061E084E00E94040161E083E00E94040155
:1015000061E087E00E94040161E088E00E9404013C
:1015100061E08CE00E94040168EC70E080E090E003
:101520000E9470010150110949F661E084E00E94B7
:10153000040161E083E00E94040161E087E00E9411
:10154000040161E088E00E94040161E08CE00E94F7
:10155000040110928B0110928A01009141021091B6
:10156000420260913D0270913E02409139025091D9
:101570003A02E0903502F0903602EEE1F1E024E12B
:1015800031E08AE091E0A0E0CA2EA1E0DA2E0193DA
:101590001193D9016D937D939D01DC014D935D9372
:1015A000CD01D601ED92FD926D01B1E0E832FB076D
:1015B00071F7809144028111DAC066E970E083E03E
:1015C00090E00E947304E0908A01F0908B01E1E0CA
:1015D000EE1AF1080E94A00400E010E0C12CD12C0A
:1015E000CE14DF040CF0BDC01A8219821C821B824B
:1015F0001E821D8244E050E066E571E0CE01019656
:101600000E94B7051BA21AA21DA21CA21FA21EA205
:1016100069817A816115710531F04D815E81CE015C
:1016200082960E94B705B601CE0182960E945A05A5
:101630000E941C058AA19BA10E94370D89819A8175
:101640000E94370D1A8219821C821B821E821D8203
:1016500048E050E06BE571E0CE0101960E94B705CD
:101660001BA21AA21DA21CA21FA21EA269817A811E
:101670006115710531F04D815E81CE0182960E9427
:10168000B705B701CE0182960E945A050E941C053B
:101690008AA19BA10E94370D89819A810E94370DF2
:1016A000C801825E9E4F1C01D801AC5EBE4F4D0149
:1016B000F801E65FFE4F5F0140914E0250914F02EC
:1016C00060915002D1018D919C910E94BD03782FB1
:1016D00040914B0250914C0260914D02F401808187
:1016E000918179A70E94BD03382F40914802509103
:1016F000490260914A02D5018D919C9138A70E94C0
:10170000BD03282F79A538A5772311F0311101C029
:1017100020E064E170E080E090E028A70E94700182
:1017200028A5222349F2F801E050FF4F5F014091C4
:1017300045025091460260914702D5018D919C91DE
:101740000E94BD03982E64E170E080E090E00E946A
:101750007001992061F3BFEFCB1ADB0A0E5F1F4FB8
:101760003FCF64EF71E081E090E00E9473040E943B
:10177000AA0206CDBB274A3031F4992322F4BDE2F8
:10178000909581959F4F0C94C60BBB27FB01552765
:10179000AA27880F991FAA1FA41710F0A41B8395CE
:1017A0005051B9F7A05DAA3308F0A95DA193009745
:1017B00079F7B111B1931192CB010C94DF0BDC01DD
:1017C000FC01672F71917723E1F7329704C07C9178
:1017D0006D9370836291AE17BF07C8F30895052E0D
:1017E00097FB1EF400940E94060C57FD07D00E9440
:1017F000580C07FC03D04EF40C94060C5095409501
:10180000309521953F4F4F4F5F4F089590958095AC
:10181000709561957F4F8F4F9F4F08950E947A0C6E
:10182000A59F900DB49F900DA49F800D911D112434
:101830000895B7FF0C940E0C0E940E0C821B930BA4
:1018400008952F923F924F925F926F927F928F9264
:101850009F92AF92BF92CF92DF92EF92FF920F933F
:101860001F93CF93DF93CDB7DEB7CA1BDB0B0FB649
:10187000F894DEBF0FBECDBF09942A883988488806
:101880005F846E847D848C849B84AA84B984C8849C
:10189000DF80EE80FD800C811B81AA81B981CE0F93
:1018A000D11D0FB6F894DEBF0FBECDBFED01089578
:1018B000A1E21A2EAA1BBB1BFD010DC0AA1FBB1F54
:1018C000EE1FFF1FA217B307E407F50720F0A21BC6
:1018D000B30BE40BF50B661F771F881F991F1A9433
:1018E00069F760957095809590959B01AC01BD015D
:1018F000CF010895A29FB001B39FC001A39F700DB7
:10190000811D1124911DB29F700D811D1124911D07
:101910000895991B79E004C0991F961708F0961B4B
:10192000881F7A95C9F780950895EE0FFF1F0590DF
:10193000F491E02D09940E947A0CB7FF0895821B60
:10194000930B0895CF93DF938230910510F482E0DA
:1019500090E0E0915302F091540220E030E0C0E0CA
:10196000D0E0309711F14081518148175907C0F0FC
:101970004817590761F482819381209719F09B835E
:101980008A832BC0909354028093530226C0211562
:10199000310519F04217530718F49A01BE01DF010F
:1019A000EF010280F381E02DDCCF2115310509F133
:1019B000281B390B2430310590F412968D919C919F
:1019C00013976115710521F0FB019383828304C095
:1019D0009093540280935302FD01329644C0FD015E
:1019E000E20FF31F81939193225031092D933C9381
:1019F0003AC02091510230915202232B41F42091A0
:101A00002B0130912C0130935202209351022091EE
:101A1000290130912A012115310541F42DB73EB736
:101A200040912D0150912E01241B350BE091510264
:101A3000F0915202E217F307A0F42E1B3F0B281778
:101A4000390778F0AC014E5F5F4F2417350748F037
:101A50004E0F5F1F50935202409351028193919316
:101A600002C0E0E0F0E0CF01DF91CF9108950F9345
:101A70001F93CF93DF93009709F48CC0FC0132973A
:101A80001382128200915302109154020115110524
:101A900081F420813181820F931F20915102309176
:101AA00052022817390779F5F0935202E093510258
:101AB00071C0D80140E050E0AE17BF0750F4129655
:101AC0002D913C911397AD012115310509F1D901F3
:101AD000F3CF9D01DA013383228360817181860F08
:101AE000971F8217930769F4EC0128813981260F2B
:101AF000371F2E5F3F4F318320838A819B819383E1
:101B00008283452B29F4F0935402E093530242C0A0
:101B10001396FC93EE931297ED01499159919E0112
:101B2000240F351FE217F30771F480819181840F30
:101B3000951F029611969C938E93828193811396A2
:101B40009C938E931297E0E0F0E0D80112968D916D
:101B50009C911397009719F0F8018C01F6CF8D91A5
:101B60009C9198012E5F3F4F820F931F209151024D
:101B7000309152022817390769F4309729F41092EE
:101B800054021092530202C0138212821093520226
:101B900000935102DF91CF911F910F910895A0E022
:101BA000B0E0E5EDFDE00C94250CEC01009721F48C
:101BB000CB010E94A20CB8C0FC01E60FF71F9C01EC
:101BC00022503109E217F30708F4ACC0D9010D9196
:101BD0001C91119706171707B0F00530110508F48E
:101BE0009FC0C80104978617970708F499C0025050
:101BF0001109061B170B019311936D937C93CF0171
:101C00000E94370D8DC05B01A01AB10A4C01800EF5
:101C1000911EA0915302B091540240E050E0E12C9B
:101C2000F12C109709F44AC0A815B905D1F56D90AB
:101C30007C901197630182E0C80ED11CCA14DB04AA
:101C400080F1A3014A195B096A0182E0C80ED11C28
:101C50001296BC9012971396AC91B5E0CB16D104B6
:101C600040F0B282A38351834083D9016D937C936A
:101C70000AC00E5F1F4FC301800F911FF9019183AE
:101C80008083EB2DFA2FE114F10431F0D701139684
:101C9000FC93EE93129744C0F0935402E0935302E6
:101CA0003FC08D919C9111974817590708F4AC01DA
:101CB0007D0112960D90BC91A02DB3CF8091510261
:101CC0009091520288159905E1F446175707C8F418
:101CD0008091290190912A01009741F48DB79EB718
:101CE00040912D0150912E01841B950BE817F907A7
:101CF000C8F4F0935202E0935102F90171836083BA
:101D00000FC0CB010E94A20C7C01009759F0A801E2
:101D1000BE010E949E0ECE010E94370DC70104C075
:101D2000CE0102C080E090E0CDB7DEB7EEE00C94CB
:101D3000410C81E090E0F8940C94AE0EFB01DC01C4
:101D400002C001900D9241505040D8F70895FB0118
:101D5000DC0101900D920020E1F70895F894FFCF87
:101D60005A005A005A005A005A005A005A005A00A3
:101D70005A005A005A005A005A005A005A005A0093
:101D80005A005A005A005A00010000550280000013
:101D90000000004102AA01D90188020A02E801FC00
:101DA000010D0A0050726573736564200052656C02
:101DB00065617365200069203D2000737465707350
:041DC000203D2000A2
:00000001FF
