:100000000C9462000C948A000C948A000C948A0070
:100010000C948A000C948A000C948A000C948A0038
:100020000C948A000C948A000C948A000C94B305FA
:100030000C948A000C948A000C948A000C948A0018
:100040000C9411050C948A000C9481050C945B05AA
:100050000C948A000C948A000C948A000C948A00F8
:100060000C948A000C948A000000000023002600F3
:10007000290000000008000201000003040700003E
:1000800000000000000000000000250028002B00F8
:1000900000000000240027002A00040404040404D3
:1000A0000404020202020202030303030303010227
:1000B00004081020408001020408102001020408F6
:1000C0001020740611241FBECFEFD8E0DEBFCDBFD5
:1000D00011E0A0E0B1E0E6EFF4E102C005900D927E
:1000E000A832B107D9F723E0A8E2B1E001C01D9220
:1000F000A630B207E1F710E0C2E6D0E004C02197D5
:10010000FE010E946E0AC136D107C9F70E94ED06B2
:100110000C94790A0C94000090E0FC01E255FF4F2A
:100120002491FC01E656FF4F8491882399F090E0DA
:10013000880F991FFC01E057FF4FA591B491FC0176
:10014000EA57FF4F859194918FB7F894EC91E22B89
:10015000EC938FBF0895833081F028F4813099F0BB
:100160008230A1F008958730A9F08830B9F084304A
:10017000D1F4809180008F7D03C0809180008F77C3
:1001800080938000089584B58F7702C084B58F7DF9
:1001900084BD08958091B0008F7703C08091B00036
:1001A0008F7D8093B0000895CF93DF93282F30E0A8
:1001B000F901EE58FF4F8491F901E255FF4FD491B8
:1001C000F901E656FF4FC491CC2391F081110E94B2
:1001D000AB00EC2FF0E0EE0FFF1FE859FF4FA591A9
:1001E000B491EC91ED2381E090E021F480E002C035
:1001F00080E090E0DF91CF9108951F93CF93DF933C
:10020000282F30E0F901EE58FF4F8491F901E255B3
:10021000FF4FD491F901E656FF4FC491CC23C9F0AA
:10022000162F81110E94AB00EC2FF0E0EE0FFF1FA4
:10023000EA57FF4FA591B4918FB7F894111105C0FB
:100240009C91ED2FE095E92302C0EC91ED2BEC930E
:100250008FBFDF91CF911F9108958E3008F08E509F
:100260008770806480937C0080917A0080648093A2
:100270007A0080917A0086FDFCCF809178002091F1
:10028000790090E0922B0895CF92DF92EF92FF9247
:100290000F931F93CF93DF9360E08BE00E94FD00EC
:1002A00084E10E942D01C4EFD1E0998B888B85E118
:1002B0000E942D019B8B8A8B8EE00E942D019D8BCD
:1002C0008C8B8FE00E942D018C01A889B98923EBCA
:1002D00030E00E94670ACC24CA9423E0D22EE12C9D
:1002E000F12CA70196010E94F809398B288BAA8965
:1002F000BB8923EB30E00E94670AA70196010E94A8
:10030000F8093B8B2A8BAC89BD8923EB30E00E9436
:10031000670AA70196010E94F8093D8B2C8B23E701
:1003200030E0D8010E94670AA70196010E94F809EF
:10033000DA01C9010596A11DB11D9F8B8E8BDF913E
:10034000CF911F910F91FF90EF90DF90CF90089584
:100350003FB7F89480912F0190913001A091310125
:10036000B091320126B5A89B05C02F3F19F0019628
:10037000A11DB11D3FBFBA2FA92F982F8827820F2B
:10038000911DA11DB11DBC01CD0142E0660F771F7B
:10039000881F991F4A95D1F708958F929F92AF9227
:1003A000BF92CF92DF92EF92FF926B017C010E948D
:1003B000A8014B015C01C114D104E104F104F1F086
:1003C0000E94A801DC01CB0188199909AA09BB097F
:1003D000883E9340A105B10570F321E0C21AD1080F
:1003E000E108F10888EE880E83E0981EA11CB11C7C
:1003F000C114D104E104F10419F7DDCFFF90EF90AF
:10040000DF90CF90BF90AF909F908F900895CF9244
:10041000DF92EF92FF920F931F93CF93DF938C01A4
:10042000C0E0D0E06B01770FEE08FF08C017D107DE
:1004300094F461E082E00E94FD00C701B6010E94D1
:10044000CD0160E082E00E94FD00C701B6010E947C
:10045000CD012196EBCFDF91CF911F910F91FF90AE
:10046000EF90DF90CF900895CF92DF92EF92FF92BE
:100470000F931F93CF93DF936C017A018B01C0E040
:10048000D0E0CE15DF0589F0D8016D918D01D60140
:10049000ED91FC910190F081E02DC6010995892B29
:1004A00011F47E0102C02196ECCFC701DF91CF91FC
:1004B0001F910F91FF90EF90DF90CF9008950895D6
:1004C00080E090E00895FC01538D448D252F30E0AD
:1004D000842F90E0821B930B541710F0CF96089551
:1004E00001970895FC01918D828D981761F0828D9E
:1004F000DF01A80FB11D5D968C91928D9F5F9F7358
:10050000928F90E008958FEF9FEF0895FC01918DF9
:10051000828D981731F0828DE80FF11D858D90E066
:1005200008958FEF9FEF0895FC01918D228D892F03
:1005300090E0805C9F4F821B91098F7399270895EB
:1005400087E591E00E94940221E0892B09F420E0E4
:10055000822F0895FC01848DDF01A80FB11DA35ADD
:10056000BF4F2C91848D90E001968F739927848FD3
:10057000A689B7892C93A089B1898C9180648C93CA
:10058000938D848D981306C00288F389E02D8081B5
:100590008F7D80830895EF92FF920F931F93CF93E7
:1005A000DF93EC0181E0888F9B8D8C8D981305C0C3
:1005B000E889F989808185FD24C0F62E0B8D10E035
:1005C0000F5F1F4F0F731127E02E8C8DE8120CC0A8
:1005D0000FB607FCFACFE889F989808185FFF5CF4E
:1005E000CE010E94AA02F1CF8B8DFE01E80FF11D12
:1005F000E35AFF4FF0820B8FEA89FB89808180628A
:1006000007C0EE89FF896083E889F9898081806469
:10061000808381E090E0DF91CF911F910F91FF9057
:10062000EF900895CF93DF93EC01888D8823C9F074
:10063000EA89FB89808185FD05C0A889B9898C91EB
:1006400086FD0FC00FB607FCF5CF808185FFF2CF86
:10065000A889B9898C9185FFEDCFCE010E94AA02AD
:10066000E7CFDF91CF91089580E090E0892B29F0CA
:100670000E94A00281110C9400000895CF92DF9295
:10068000EF92FF92CF93DF93EC01603282E0780724
:100690000CF03DC077FD06C0653B71052CF064EBA6
:1006A00070E002C060E070E0898128E830E0690114
:1006B000C81AD10887FDD394CC0CDD1CCC0CDD1CF2
:1006C0000D2C000CEE08FF088A8128E532E0281B7B
:1006D000310987FD3395220F331F220F331FC901C4
:1006E000330FAA0BBB0B9C01AD012C193D094E0920
:1006F0005F09DB010E94220A24EB30E040E050E079
:100700000E94F809C20ED31EE41EF51EB6018881B0
:100710008C3080F5998148E850E0491B510997FDDC
:100720005395440F551F440F551F6417750784F0E8
:100730009A8128E532E0291B310997FD3395220F74
:10074000331F220F331FAB01261737070CF4A90103
:1007500042505109440F551F2FB7F89490E0FC0107
:10076000EE0FFF1F8E0F9F1FFC01ED5CFE4F5283AB
:1007700041832FBFDF91CF91FF90EF90DF90CF901B
:1007800008958F929F92AF92BF92CF92DF92EF9295
:10079000FF920F931F93CF93DF9300D01F92CDB79B
:1007A000DEB78C0149835A836B838B8128E532E065
:1007B0006901C81AD10887FDD394CC0CDD1CCC0C80
:1007C000DD1C0D2C000CEE08FF088A8128E830E0C3
:1007D0004901881A910887FD9394880C991C880C0C
:1007E000991C092C000CAA08BB0889818F3FC1F015
:1007F00090E0FC01EE0FFF1F8E0F9F1FFC01ED5CD0
:10080000FE4F2181328143E0220F331F4A95E1F7E9
:1008100054E0369527955A95E1F72E5F3F4F02C079
:1008200020E030E02F5F3F4FC901330FAA0BBB0B15
:100830009C01AD01281939094A095B09A4EBB0E014
:100840000E94170AA7019601281939094A095B096C
:100850000E94F8092017310724F4B9016F5F7F4F18
:1008600006C0021713074CF4B90161507109CE019B
:1008700001960E943E0380E001C081E00F900F903E
:100880000F90DF91CF911F910F91FF90EF90DF902C
:10089000CF90BF90AF909F908F900895EF92FF926E
:1008A0000F931F93CF93DF937B018A01E901BC0172
:1008B00084EF91E00E943E03B70187EF91E00E9430
:1008C0003E03B8018AEF91E00E943E03BE018DEF26
:1008D00091E00E943E0364E170E080E090E0DF91EF
:1008E000CF911F910F91FF90EF900C94CD010F933A
:1008F0001F93CF93DF931F92CDB7DEB78C01DC013E
:100900008C918C3008F055C0862F69830E948C0032
:10091000F8018081E82FF0E09F01220F331FE20FE2
:10092000F31FED5CFE4F69816F739081907C692BA2
:100930006083D80111961C92119712961C926CE05C
:100940000E945B0ABCE08B9FB001112440E050E0A4
:100950009A01260F371FF901EE0FFF1F2E0F3F1FC1
:10096000F901ED5CFE4F908196FD16C04F5F5F4F21
:100970004C30510569F781110FC01092800082E060
:10098000809381001092850010928400B19A80912A
:100990006F00826080936F00D801EC91F0E0CF018E
:1009A000880F991FE80FF91FED5CFE4F808180646E
:1009B0008083F80180810F90DF91CF911F910F917B
:1009C0000895FC01909129019C30A0F481E0890FE9
:1009D000809329019083892F90E0FC01EE0FFF1F87
:1009E0008E0F9F1FFC01ED5CFE4F88EB9BE0928316
:1009F000818308958FEF80830895009769F0FC014B
:100A000001900020E9F73197AF01481B590BBC0159
:100A100087E591E00C94340280E090E008950E9414
:100A2000740A1F920F920FB60F9211242F933F93C7
:100A30008F939F93AF93BF9380912B0190912C0143
:100A4000A0912D01B0912E0130912A0123E0230FB6
:100A50002D3720F40196A11DB11D05C026E8230FF6
:100A60000296A11DB11D20932A0180932B01909322
:100A70002C01A0932D01B0932E0180912F01909114
:100A80003001A0913101B09132010196A11DB11D3B
:100A900080932F0190933001A0933101B0933201E4
:100AA000BF91AF919F918F913F912F910F900FBE6A
:100AB0000F901F9018951F920F920FB60F9211244E
:100AC0002F933F934F935F936F937F938F939F9356
:100AD000AF93BF93EF93FF9387E591E00E94AA0243
:100AE000FF91EF91BF91AF919F918F917F916F9106
:100AF0005F914F913F912F910F900FBE0F901F90DC
:100B000018951F920F920FB60F9211242F938F9367
:100B10009F93EF93FF93E0916701F09168018081CB
:100B2000E0916D01F0916E0182FD12C09081809183
:100B300070018F5F8F7320917101821751F0E091E6
:100B40007001F0E0E95AFE4F958F8093700101C06B
:100B50008081FF91EF919F918F912F910F900FBE08
:100B60000F901F9018951F920F920FB60F9211249D
:100B70002F933F934F935F936F937F938F939F93A5
:100B8000AF93BF93EF93FF938091280187FF05C038
:100B900010928500109284001BC020912801022E23
:100BA000000C330B8091290190E02817390784F459
:100BB00080912801082E000C990BFC01EE0FFF1FFD
:100BC0008E0F9F1FFC01ED5CFE4F808186FD15C0DE
:100BD000809128018F5F8093280120912801022EA7
:100BE000000C330B8091290190E028173907C4F4D9
:100BF000809128018C3064F113C080912801082E67
:100C0000000C990BFC01EE0FFF1F8E0F9F1FFC01C4
:100C1000ED5CFE4F808160E08F730E94FD00D8CFB5
:100C20008091840090918500049680349C4918F44A
:100C300080E49CE905C08091840090918500049631
:100C400090938900809388008FEF809328013BC0A8
:100C5000209184003091850080912801082E000C9D
:100C6000990BFC01EE0FFF1F8E0F9F1FFC01ED5C27
:100C7000FE4F81819281820F931F90938900809310
:100C8000880080912801082E000C990BFC01EE0FC2
:100C9000FF1F8E0F9F1FFC01ED5CFE4F808186FFC2
:100CA00012C080912801082E000C990BFC01EE0F58
:100CB000FF1F8E0F9F1FFC01ED5CFE4F808161E0E6
:100CC0008F730E94FD00FF91EF91BF91AF919F91B3
:100CD0008F917F916F915F914F913F912F910F90E5
:100CE0000FBE0F901F901895E7E5F1E01382128276
:100CF00088EE93E0A0E0B0E084839583A683B78379
:100D00008EE091E09183808385EC90E095878487E5
:100D100084EC90E09787868780EC90E0918B808BC5
:100D200081EC90E0938B828B82EC90E0958B848BAE
:100D300086EC90E0978B868B118E128E138E148E1C
:100D400084EF91E00E94E10487EF91E00E94E104CA
:100D50008AEF91E00E94E1048DEF91E00E94E104AE
:100D6000E4EFF1E081E08487878585878089918938
:100D7000918F808F82899389938F828F84899589BF
:100D8000958F848F86899789978F868F11A210A25D
:100D90008AE0E0E0F1E0AEEDB2E001900D928A95DC
:100DA000E1F78AE0E0E0F1E0A8EEB2E001900D9218
:100DB0008A95E1F78AE0E0E0F1E0A2EFB2E001908D
:100DC0000D928A95E1F78AE0E0E0F1E0ACEFB2E065
:100DD00001900D928A95E1F70895CF93DF93CDB7F7
:100DE000DEB7A5970FB6F894DEBF0FBECDBF7894DF
:100DF00084B5826084BD84B5816084BD85B5826020
:100E000085BD85B5816085BD80916E0081608093D0
:100E10006E00109281008091810082608093810039
:100E20008091810081608093810080918000816049
:100E3000809380008091B10084608093B1008091A4
:100E4000B00081608093B00080917A0084608093CC
:100E50007A0080917A00826080937A0080917A0093
:100E6000816080937A0080917A00806880937A0014
:100E70001092C100E0916701F091680182E08083E7
:100E8000E0916301F09164011082E0916501F091BD
:100E900066018FEC808310926F01E0916B01F091FD
:100EA0006C0186E08083E0916901F0916A018081A4
:100EB00080618083E0916901F0916A01808188609E
:100EC0008083E0916901F0916A018081806880836C
:100ED000E0916901F0916A0180818F7D808361E0FA
:100EE0008BE00E94FD0065E070E084EF91E00E94DD
:100EF000770466E070E087EF91E00E94770469E094
:100F000070E08AEF91E00E9477046AE070E08DEF74
:100F100091E00E9477048BE00E948C0082E00E94A6
:100F20008C0084E00E948C0083E00E948C0087E0AB
:100F30000E948C0088E00E948C008CE00E948C0053
:100F400061E084E00E94FD0061E083E00E94FD001A
:100F500061E087E00E94FD0061E088E00E94FD0002
:100F600061E08CE00E94FD000E94440160E08BE0A3
:100F70000E94FD004091F4015091F5016091F6014D
:100F800080910402909105020E94C103E82E4091D5
:100F9000F7015091F8016091F9018091060290915A
:100FA00007020E94C103F82E4091FA015091FB0103
:100FB0006091FC0180910802909109020E94C10396
:100FC000082F4091FD015091FE016091FF01809139
:100FD0000A0290910B020E94C103182FEE2021F00B
:100FE000FF2011F0011101C010E062E370E080E029
:100FF00090E00E94CD01112309F4BCCF62E370E0C0
:1010000085E090E00E9407026AE5E62EF12C7AE086
:10101000472E512C612C712C60E08BE00E94FD006A
:10102000E6E1F2E0E192F192F1AAE0AADF01AE5925
:10103000BF4F1196FC92EE92D296ED92FC9282E016
:10104000E834F80779F780911402909115024A97D5
:101050000CF064C160E08BE00E94FD000E9444013E
:101060008091040290910502E0910C02F0910D0232
:1010700060910602709107024091080250910902A6
:1010800020910A0230910B028E179F0759F00E949F
:101090004E04809104029091050290930D0280937A
:1010A0000C0235C0E0910E02F0910F026E177F071F
:1010B00059F00E944E04809106029091070290938D
:1010C0000F0280930E0223C0E0911002F0911102F2
:1010D0004E175F0759F00E944E04809108029091CC
:1010E0000902909311028093100211C0E091120244
:1010F000F09113022E173F0751F00E944E04809189
:101100000A0290910B02909313028093120280E1E5
:101110000E94D40021E0892B09F420E020930202F0
:10112000211175C068EC70E081E090E00E94070238
:101130008FE191E00E94FD048090140290901502CE
:10114000092C000CAA08BB08B7FE3CC1E09157016E
:10115000F09158010190F081E02D6DE287E591E07A
:10116000099522273327A901281939094A095B095A
:1011700019A28E010F5D1F4FCA01B901A30192018F
:101180000E942A0A605DF80162938F0121153105E2
:101190004105510589F7C8010E94FD048CE191E0E9
:1011A0000E94FD048091140290911502FC01EE0F43
:1011B000FF1FEA5EFD4F209104023091050231834A
:1011C0002083FC01EE0FFF1FE85BFD4F209106021C
:1011D0003091070231832083FC01EE0FFF1FE65898
:1011E000FD4F209108023091090231832083FC01D8
:1011F000EE0FFF1FE455FD4F20910A0230910B02C4
:10120000318320830196909315028093140281E12B
:101210000E94D40021E0892B09F420E020930302EE
:10122000211111CF66E970E083E090E00E9407028F
:10123000A0901402B090150260E08BE00E94FD00C7
:101240000CEA12E0C12CD12CCA14DB040CF05FC0F4
:10125000C801865991099BA38AA3180194E6291A0B
:1012600031084801E2E38E1A91084091F40150914F
:10127000F5016091F601EAA1FBA1808191810E94B4
:10128000C103782F4091F7015091F8016091F90165
:10129000F101808191817DA30E94C103382F40918B
:1012A000FA015091FB016091FC01F4018081918170
:1012B0003CA30E94C103282F7DA13CA1772311F0FC
:1012C000311101C020E064E170E080E090E02CA3E7
:1012D0000E94CD012CA1222341F24091FD015091A9
:1012E000FE016091FF01F801808191810E94C1039C
:1012F000982E64E170E080E090E00E94CD0199209A
:1013000061F3FFEFCF1ADF0A0E5F1F4F9DCF64EF2F
:1013100071E081E090E00E94070295CE10921502E4
:101320001092140203E010E060E084E00E94FD00EF
:1013300060E083E00E94FD0060E087E00E94FD0025
:1013400060E088E00E94FD0060E08CE00E94FD000B
:1013500068EC70E080E090E00E94CD0161E084E004
:101360000E94FD0061E083E00E94FD0061E087E0F3
:101370000E94FD0061E088E00E94FD0061E08CE0D9
:101380000E94FD0068EC70E080E090E00E94CD01DA
:101390000150110949F661E084E00E94FD0061E01E
:1013A00083E00E94FD0061E087E00E94FD0061E0B3
:1013B00088E00E94FD0061E08CE00E94FD000E9438
:1013C00034032ACEA501940119A28E010F5D1F4F8F
:1013D000CA01B901A30192010E942A0A605DF801C5
:1013E00062938F01211531054105510589F7D3CE4F
:1013F000052E97FB1EF400940E940F0A57FD07D09C
:101400000E942A0A07FC03D04EF40C940F0A509550
:101410004095309521953F4F4F4F5F4F08959095E0
:101420008095709561957F4F8F4F9F4F08950E94D3
:101430004C0AA59F900DB49F900DA49F800D911D07
:1014400011240895B7FF0C94170A0E94170A821BF3
:10145000930B0895A1E21A2EAA1BBB1BFD010DC020
:10146000AA1FBB1FEE1FFF1FA217B307E407F50754
:1014700020F0A21BB30BE40BF50B661F771F881F30
:10148000991F1A9469F760957095809590959B01C6
:10149000AC01BD01CF010895A29FB001B39FC0016F
:1014A000A39F700D811D1124911DB29F700D811D90
:1014B0001124911D0895991B79E004C0991F961776
:1014C00008F0961B881F7A95C9F7809508950E94A9
:1014D0004C0AB7FF0895821B930B0895EE0FFF1F70
:1014E0000590F491E02D099481E090E0F8940C943B
:0614F000790AF894FFCF19
:1014F6005A005A005A005A005A0000000000CB0257
:101506003402630212039402720286020D0A00502C
:08151600726573736564200027
:00000001FF
