:100000000C9469000C9491000C9491000C94910054
:100010000C9491000C9491000C9491000C9491001C
:100020000C9491000C9491000C9491000C94D302C8
:100030000C9491000C9491000C9491000C949100FC
:100040000C946D060C9491000C9402020C94DC014B
:100050000C9491000C9491000C9491000C949100DC
:100060000C9491000C9491004A096B098E09B30914
:10007000D609F909FC090000000023002600290028
:100080000000000800020100000304070000000057
:100090000000000000000000250028002B000000E8
:1000A0000000240027002A000404040404040404BB
:1000B0000202020202020303030303030102040813
:1000C00010204080010204081020010204081020C2
:1000D000380B11241FBECFEFD8E0DEBFCDBF11E03B
:1000E000A0E0B1E0EEE4FDE102C005900D92A6347F
:1000F000B107D9F722E0A6E4B1E001C01D92A03615
:10010000B207E1F710E0C9E6D0E004C02197FE0194
:100110000E948C0CC836D107C9F70E943F070C9487
:10012000A50E0C940000089580E090E00895FC0175
:10013000538D448D252F30E0842F90E0821B930B4C
:10014000541710F0CF96089501970895FC01918DF2
:10015000828D981761F0828DDF01A80FB11D5D9629
:100160008C91928D9F5F9F73928F90E008958FEF97
:100170009FEF0895FC01918D828D981731F0828D4B
:10018000E80FF11D858D90E008958FEF9FEF0895A2
:10019000FC01918D228D892F90E0805C9F4F821B06
:1001A00091098F73992708958CE691E00E94C80009
:1001B00021E0892B09F420E0822F0895FC01848D31
:1001C000DF01A80FB11DA35ABF4F2C91848D90E081
:1001D00001968F739927848FA689B7892C93A0895C
:1001E000B1898C9180648C93938D848D981306C013
:1001F0000288F389E02D80818F7D80830895EF92BE
:10020000FF920F931F93CF93DF93EC0181E0888FD0
:100210009B8D8C8D981305C0E889F989808185FDB7
:1002200024C0F62E0B8D10E00F5F1F4F0F731127A8
:10023000E02E8C8DE8120CC00FB607FCFACFE889CF
:10024000F989808185FFF5CFCE010E94DE00F1CFD4
:100250008B8DFE01E80FF11DE35AFF4FF0820B8FEB
:10026000EA89FB898081806207C0EE89FF8960830B
:10027000E889F98980818064808381E090E0DF9162
:10028000CF911F910F91FF90EF900895CF93DF933F
:10029000EC01888D8823C9F0EA89FB89808185FD7E
:1002A00005C0A889B9898C9186FD0FC00FB607FCDF
:1002B000F5CF808185FFF2CFA889B9898C9185FF20
:1002C000EDCFCE010E94DE00E7CFDF91CF91089500
:1002D00080E090E0892B29F00E94D40081110C94D9
:1002E000000008950F931F93CF93DF931F92CDB714
:1002F000DEB78C01DC018C918C3008F055C0862F64
:1003000069830E94DA04F8018081E82FF0E09F0100
:10031000220F331FE20FF31FE85BFE4F69816F73FB
:100320009081907C692B6083D80111961C92119763
:1003300012961C926CE00E94800CBCE08B9FB00176
:10034000112440E050E09A01260F371FF901EE0F0B
:10035000FF1F2E0F3F1FF901E85BFE4F908196FDB6
:1003600016C04F5F5F4F4C30510569F781110FC0C8
:100370001092800082E0809381001092850010929C
:100380008400B19A80916F00826080936F00D801E1
:10039000EC91F0E0CF01880F991FE80FF91FE85B9F
:1003A000FE4F808180648083F80180810F90DF910F
:1003B000CF911F910F9108951F920F920FB60F9238
:1003C00011242F933F934F935F936F937F938F935A
:1003D0009F93AF93BF93EF93FF938CE691E00E94BE
:1003E000DE00FF91EF91BF91AF919F918F917F912F
:1003F0006F915F914F913F912F910F900FBE0F9092
:100400001F9018951F920F920FB60F9211242F93E1
:100410008F939F93EF93FF93E0917C01F0917D0187
:100420008081E0918201F091830182FD12C0908170
:10043000809185018F5F8F7320918601821751F023
:10044000E0918501F0E0E459FE4F958F809385019E
:1004500001C08081FF91EF919F918F912F910F901B
:100460000FBE0F901F901895CF92DF92EF92FF92E0
:10047000CF93DF93EC01603282E078070CF03DC04F
:1004800077FD06C0653B71052CF064EB70E002C09F
:1004900060E070E0898128E830E06901C81AD1087D
:1004A00087FDD394CC0CDD1CCC0CDD1C0D2C000C7A
:1004B000EE08FF088A8128E532E0281B310987FD14
:1004C0003395220F331F220F331FC901330FAA0B9D
:1004D000BB0B9C01AD012C193D094E095F09DB01E5
:1004E0000E94100C24EB30E040E050E00E94E60B4C
:1004F000C20ED31EE41EF51EB60188818C3080F535
:10050000998148E850E0491B510997FD5395440FE4
:10051000551F440F551F6417750784F09A8128E50D
:1005200032E0291B310997FD3395220F331F220F2B
:10053000331FAB01261737070CF4A90142505109AC
:10054000440F551F2FB7F89490E0FC01EE0FFF1FEA
:100550008E0F9F1FFC01E85BFE4F528341832FBF2C
:10056000DF91CF91FF90EF90DF90CF900895FC0145
:10057000909147019C30A0F481E0890F809347015E
:100580009083892F90E0FC01EE0FFF1F8E0F9F1FBD
:10059000FC01E85BFE4F88EB9BE09283818308952A
:1005A0008FEF808308951F920F920FB60F92112440
:1005B0002F933F934F935F936F937F938F939F936B
:1005C000AF93BF93EF93FF938091460187FF05C0E0
:1005D00010928500109284001BC020914601022ECB
:1005E000000C330B8091470190E02817390784F401
:1005F00080914601082E000C990BFC01EE0FFF1FA5
:100600008E0F9F1FFC01E85BFE4F808186FD15C0A9
:10061000809146018F5F8093460120914601022E12
:10062000000C330B8091470190E028173907C4F480
:10063000809146018C3064F113C080914601082EF0
:10064000000C990BFC01EE0FFF1F8E0F9F1FFC018A
:10065000E85BFE4F808160E08F730E944905D8CF30
:100660008091840090918500049680349C4918F410
:1006700080E49CE905C080918400909185000496F7
:1006800090938900809388008FEF809346013BC050
:10069000209184003091850080914601082E000C45
:1006A000990BFC01EE0FFF1F8E0F9F1FFC01E85BF3
:1006B000FE4F81819281820F931F909389008093D6
:1006C000880080914601082E000C990BFC01EE0F6A
:1006D000FF1F8E0F9F1FFC01E85BFE4F808186FF8E
:1006E00012C080914601082E000C990BFC01EE0F00
:1006F000FF1F8E0F9F1FFC01E85BFE4F808161E0B2
:100700008F730E944905FF91EF91BF91AF919F9127
:100710008F917F916F915F914F913F912F910F90AA
:100720000FBE0F901F901895833081F028F4813010
:1007300099F08230A1F008958730A9F08830B9F09F
:100740008430D1F4809180008F7D03C0809180003F
:100750008F7780938000089584B58F7702C084B529
:100760008F7D84BD08958091B0008F7703C0809104
:10077000B0008F7D8093B00008958E3008F08E50C9
:100780008770806480937C0080917A00806480937D
:100790007A0080917A0086FDFCCF809178002091CC
:1007A000790090E0922B08953FB7F8948091580219
:1007B00090915902A0915A02B0915B0226B5A89B74
:1007C00005C02F3F19F00196A11DB11D3FBFBA2FE3
:1007D000A92F982F8827820F911DA11DB11DBC0143
:1007E000CD0142E0660F771F881F991F4A95D1F708
:1007F0000895CF92DF92EF92FF920F931F93CF93C2
:10080000DF936C017A018B01C0E0D0E0CE15DF05EB
:1008100089F0D8016D918D01D601ED91FC91019087
:10082000F081E02DC6010995892B11F47E0102C0EB
:100830002196ECCFC701DF91CF911F910F91FF90CF
:10084000EF90DF90CF9008950E94900E0F931F932A
:10085000CF93DF93EC0188819981009729F02A8159
:100860003B812617370788F48B016F5F7F4F0E940B
:10087000C60D009761F0998388831B830A832C81BE
:100880003D81232B11F4FC01108281E001C080E046
:10089000DF91CF911F910F9108958F929F92AF9208
:1008A000BF92CF92DF92EF92FF920F931F93CF935D
:1008B000DF9300D01F92CDB7DEB78C0149835A83F6
:1008C0006B838B8128E532E06901C81AD10887FD66
:1008D000D394CC0CDD1CCC0CDD1C0D2C000CEE08D4
:1008E000FF088A8128E830E04901881A910887FDCD
:1008F0009394880C991C880C991C092C000CAA084C
:10090000BB0889818F3FC1F090E0FC01EE0FFF1F13
:100910008E0F9F1FFC01E85BFE4F2181328143E077
:10092000220F331F4A95E1F754E0369527955A95E3
:10093000E1F72E5F3F4F02C020E030E02F5F3F4FD6
:10094000C901330FAA0BBB0B9C01AD012819390952
:100950004A095B09A4EBB0E00E94050CA7019601CF
:10096000281939094A095B090E94E60B201731074B
:1009700024F4B9016F5F7F4F06C0021713074CF4D0
:10098000B90161507109CE0101960E94340280E0E4
:1009900001C081E00F900F900F90DF91CF911F91D8
:1009A0000F91FF90EF90DF90CF90BF90AF909F900E
:1009B0008F90089590E0FC01E454FF4F2491FC01D6
:1009C000E855FF4F8491882399F090E0880F991F94
:1009D000FC01E256FF4FA591B491FC01EC56FF4F8C
:1009E000859194918FB7F894EC91E22BEC938FBFA3
:1009F0000895009769F0FC0101900020E9F7319714
:100A0000AF01481B590BBC018CE691E00C94F90333
:100A100080E090E00895CF93DF93FC0144815581FD
:100A2000608171818CE691E00E94F903EC018BE218
:100A300091E00E94F9048C0F9D1FDF91CF910895E2
:100A4000CF93DF93282F30E0F901E058FF4F8491D6
:100A5000F901E454FF4FD491F901E855FF4FC491D7
:100A6000CC2391F081110E949403EC2FF0E0EE0F63
:100A7000FF1FEA58FF4FA591B491EC91ED2381E05F
:100A800090E021F480E002C080E090E0DF91CF911F
:100A900008951F93CF93DF93282F30E0F901E0589A
:100AA000FF4F8491F901E454FF4FD491F901E855C7
:100AB000FF4FC491CC23C9F0162F81110E949403DB
:100AC000EC2FF0E0EE0FFF1FEC56FF4FA591B49115
:100AD0008FB7F894111105C09C91ED2FE095E92393
:100AE00002C0EC91ED2BEC938FBFDF91CF911F9162
:100AF0000895CF92DF92EF92FF920F931F93CF93BF
:100B0000DF9360E08BE00E94490584E10E94BD0311
:100B1000C9E0D2E0998B888B85E10E94BD039B8B55
:100B20008A8B8EE00E94BD039D8B8C8B8FE00E9490
:100B3000BD038C01A889B98923EB30E00E94920C97
:100B4000CC24CA9423E0D22EE12CF12CA7019601EB
:100B50000E94E60B398B288BAA89BB8923EB30E0F6
:100B60000E94920CA70196010E94E60B3B8B2A8BF8
:100B7000AC89BD8923EB30E00E94920CA70196015D
:100B80000E94E60B3D8B2C8B23E730E0D8010E94BE
:100B9000920CA70196010E94E60BDA01C9010596A5
:100BA000A11DB11D9F8B8E8BDF91CF911F910F9156
:100BB000FF90EF90DF90CF9008958F929F92AF9229
:100BC000BF92CF92DF92EF92FF926B017C010E9465
:100BD000D4034B015C01C114D104E104F104F1F030
:100BE0000E94D403DC01CB0188199909AA09BB0929
:100BF000883E9340A105B10570F321E0C21AD108E7
:100C0000E108F10888EE880E83E0981EA11CB11C53
:100C1000C114D104E104F10419F7DDCFFF90EF9086
:100C2000DF90CF90BF90AF909F908F900895CF921C
:100C3000DF92EF92FF920F931F93CF93DF938C017C
:100C4000C0E0D0E06B01770FEE08FF08C017D107B6
:100C500094F461E082E00E944905C701B6010E9458
:100C6000DD0560E082E00E944905C701B6010E94EF
:100C7000DD052196EBCFDF91CF911F910F91FF9072
:100C8000EF90DF90CF900895EF92FF920F931F9314
:100C9000CF93DF937B018A01E901BC0189E092E0F7
:100CA0000E943402B7018CE092E00E943402B80145
:100CB0008FE092E00E943402BE0182E192E00E9445
:100CC000340264E170E080E090E0DF91CF911F9109
:100CD0000F91FF90EF900C94DD051F920F920FB6CD
:100CE0000F9211242F933F938F939F93AF93BF93B2
:100CF0008091540290915502A0915602B0915702F2
:100D00003091530223E0230F2D3720F40196A11DCB
:100D1000B11D05C026E8230F0296A11DB11D209329
:100D200053028093540290935502A0935602B093BD
:100D300057028091580290915902A0915A02B091A5
:100D40005B020196A11DB11D809358029093590238
:100D5000A0935A02B0935B02BF91AF919F918F9184
:100D60003F912F910F900FBE0F901F901895CF922B
:100D7000DF92EF92FF920F931F93CF93DF93CDB744
:100D8000DEB728970FB6F894DEBF0FBECDBF8C013B
:100D9000CB014AE09E012F5F3F4F6901B9010E94DC
:100DA000B10BF60101900020E9F73197EC19FD092C
:100DB000D8011496ED90FC901597309729F1EE0E1E
:100DC000FF1EB701C8010E942604F801208131816D
:100DD000882369F084819581B601820F931F0E9458
:100DE0009E0ED8011596FC92EE9214970DC0211517
:100DF000310519F0C9010E942E0DF80111821082EF
:100E00001582148213821282C80128960FB6F894B4
:100E1000DEBF0FBECDBFDF91CF911F910F91FF902D
:100E2000EF90DF90CF900895EF92FF920F931F9372
:100E3000CF93DF93EC017B018A01BA010E94260463
:100E40002881398181110DC02115310519F0C901A1
:100E50000E942E0D198218821D821C821B821A820A
:100E600006C01D830C83B701C9010E949E0ECE01EE
:100E7000DF91CF911F910F91FF90EF900895CF9345
:100E8000DF93CDB7DEB7A7970FB6F894DEBF0FBEDE
:100E9000CDBF789484B5826084BD84B5816084BD03
:100EA00085B5826085BD85B5816085BD80916E0008
:100EB000816080936E001092810080918100826039
:100EC0008093810080918100816080938100809176
:100ED00080008160809380008091B1008460809365
:100EE000B1008091B00081608093B00080917A0061
:100EF000846080937A0080917A00826080937A0087
:100F000080917A00816080937A0080917A00806875
:100F100080937A001092C100E0917C01F0917D01F4
:100F200082E08083E0917801F09179011082E09174
:100F30007A01F0917B018FEC808310928401E09123
:100F40008001F091810186E08083E0917E01F09143
:100F50007F01808180618083E0917E01F0917F013B
:100F6000808188608083E0917E01F0917F018081A3
:100F700080688083E0917E01F0917F0180818F7D88
:100F8000808361E08BE00E94490565E070E089E0C4
:100F900092E00E94720166E070E08CE092E00E94B4
:100FA000720169E070E08FE092E00E9472016AE0F5
:100FB00070E082E192E00E9472018BE00E94DA040C
:100FC00082E00E94DA0484E00E94DA0483E00E9456
:100FD000DA0487E00E94DA0488E00E94DA048CE0F8
:100FE0000E94DA0461E084E00E94490561E083E048
:100FF0000E94490561E087E00E94490561E088E0C0
:101000000E94490561E08CE00E9449050E94790533
:1010100060E08BE00E9449054091090250910A026C
:1010200060910B028091190290911A020E944D0466
:10103000E82E40910C0250910D0260910E028091B9
:101040001B0290911C020E944D04F82E40910F0249
:10105000509110026091110280911D0290911E0228
:101060000E944D04082F409112025091130260918A
:10107000140280911F02909120020E944D04182FAB
:10108000EE2021F0FF2011F0011101C010E062E319
:1010900070E080E090E00E94DD05112309F4BCCFF0
:1010A00062E370E085E090E00E9417068AE0882EF7
:1010B000912CA12CB12C60E08BE00E94490580E1CD
:1010C0000E94200521E0892B09F420E020931702DB
:1010D00081E10E94200521E0892B09F420E0209382
:1010E000180260E08BE00E9449050E94790580911A
:1010F000190290911A02E0912102F091220260916E
:101100001B0270911C0240911D0250911E02209101
:101110001F02309120028E179F0759F00E9444064B
:101120008091190290911A029093220280932102D9
:1011300035C0E0912302F09124026E177F0759F029
:101140000E94440680911B0290911C0290932402FD
:101150008093230223C0E0912502F09126024E17CE
:101160005F0759F00E94440680911D0290911E0273
:10117000909326028093250211C0E0912702F091FE
:1011800028022E173F0751F00E94440680911F024B
:101190009091200290932802809327028091170259
:1011A00090911502891709F468C081115AC068EC42
:1011B00070E081E090E00E941706809129029091F2
:1011C0002A02019690932A028093290282E291E0FA
:1011D0000E94F904C0902902D0902A020D2C000C24
:1011E000EE08FF08F7FE26C0E0916C01F0916D015A
:1011F0000190F081E02D6DE28CE691E009952227C7
:101200003327A9012C193D094E095F0919A28E0146
:101210000F5D1F4FCA01B901A50194010E944F0C37
:10122000605DF80162938F0121153105410551057B
:1012300089F715C0A701960119A28E010F5D1F4FF6
:10124000CA01B901A50194010E944F0C605DF8012B
:1012500062938F01211531054105510589F7C801B8
:1012600002C08EE291E00E94F9048BE291E00E94BC
:10127000F9048091170280931502E0912902F09100
:101280002A023197E730F10508F025C1EC5CFF4FE9
:101290000C948C0C8091190290911A0290932C025C
:1012A00080932B0280911B0290911C029093360236
:1012B0008093350280911D0290911E02909340020E
:1012C00080933F0280911F029091200290934A02E6
:1012D0008093490200C18091190290911A02909363
:1012E0002E0280932D0280911B0290911C029093FC
:1012F00038028093370280911D0290911E029093D4
:1013000042028093410280911F02909120029093AB
:101310004C0280934B0260E084E022C0809119026D
:1013200090911A029093300280932F0280911B02B9
:1013300090911C0290933A028093390280911D0291
:1013400090911E02909344028093430280911F0269
:101350009091200290934E0280934D0260E083E0D2
:101360000E944905B8C08091190290911A02909389
:1013700032028093310280911B0290911C02909363
:101380003C0280933B0280911D0290911E0290933B
:1013900046028093450280911F0290912002909313
:1013A000500280934F0260E087E0DACF809119020B
:1013B00090911A02909334028093330280911B0221
:1013C00090911C0290933E0280933D0280911D02F9
:1013D00090911E02909348028093470280911F02D1
:1013E00090912002909352028093510260E088E035
:1013F000B7CF60E08CE0B4CF03E010E060E084E0C1
:101400000E94490560E083E00E94490560E087E0B2
:101410000E94490560E088E00E94490560E08CE098
:101420000E94490568EC70E080E090E00E94DD05D4
:1014300061E084E00E94490561E083E00E94490583
:1014400061E087E00E94490561E088E00E9449056B
:1014500061E08CE00E94490568EC70E080E090E07B
:101460000E94DD050150110949F661E084E00E9407
:10147000490561E083E00E94490561E087E00E9440
:10148000490561E088E00E94490561E08CE00E9426
:10149000490510922A021092290260911902709156
:1014A0001A0240911B0250911C0220911D023091A2
:1014B0001E0280911F0290912002EBE2F2E0619304
:1014C000719351874087338B228B958F848FA2E055
:1014D000E533FA07A1F7809118028111C6C066E9C9
:1014E00070E083E090E00E941706E0902902F090FF
:1014F0002A02E1E0EE1AF10860E08BE00E94490563
:101500000BE212E0C12CD12CCE14DF040CF0A7C0EA
:101510001A8219821C821B821E821D8244E050E0C6
:1015200067E371E0CE0101960E9414071BA21AA284
:101530001DA21CA21FA21EA269817A8161157105DC
:1015400031F04D815E81CE0182960E941407B60172
:10155000CE0182960E94B7060E940B058AA19BA12C
:101560000E942E0D89819A810E942E0D1A82198265
:101570001C821B821E821D8248E050E06CE371E0F9
:10158000CE0101960E9414071BA21AA21DA21CA242
:101590001FA21EA269817A816115710531F04D810A
:1015A0005E81CE0182960E941407B701CE01829619
:1015B0000E94B7060E940B058AA19BA10E942E0DD6
:1015C00089819A810E942E0D4091090250910A0250
:1015D00060910B02F801808191810E944D04582E88
:1015E00040910C0250910D0260910E02F80182852B
:1015F00093850E944D04682E40910F025091100275
:1016000060911102F801848995890E944D04782E19
:10161000552011F0611001C0712C64E170E080E090
:1016200090E00E94DD05772079F2409112025091FE
:10163000130260911402F801868D978D0E944D046B
:10164000782E64E170E080E090E00E94DD05772074
:1016500061F3FFEFCF1ADF0A0E5F1F4F55CF64EF24
:1016600071E081E090E00E9417060E94680123CD9E
:10167000ECE6F1E01382128288EE93E0A0E0B0E0A5
:1016800084839583A683B78384E191E091838083EB
:1016900085EC90E09587848784EC90E09787868737
:1016A00080EC90E0918B808B81EC90E0938B828B2F
:1016B00082EC90E0958B848B86EC90E0978B868B08
:1016C000118E128E138E148E89E092E00E94B70262
:1016D0008CE092E00E94B7028FE092E00E94B70295
:1016E00082E192E00E94B702E9E0F2E081E08487C3
:1016F0008785858780899189918F808F8289938959
:10170000938F828F84899589958F848F8689978915
:10171000978F868F11A210A28AE0E6E0F1E0ABE29B
:10172000B2E001900D928A95E1F78AE0E6E0F1E0FF
:10173000A5E3B2E001900D928A95E1F78AE0E6E038
:10174000F1E0AFE3B2E001900D928A95E1F78AE013
:10175000E6E0F1E0A9E4B2E001900D928A95E1F7AC
:101760000895BB274A3031F4992322F4BDE29095C5
:1017700081959F4F0C94BD0BBB27FB015527AA27D2
:10178000880F991FAA1FA41710F0A41B839550510E
:10179000B9F7A05DAA3308F0A95DA193009779F786
:1017A000B111B1931192CB010C94D60BDC01FC0169
:1017B000672F71917723E1F7329704C07C916D9385
:1017C00070836291AE17BF07C8F30895052E97FB8B
:1017D0001EF400940E94FD0B57FD07D00E944F0C91
:1017E00007FC03D04EF40C94FD0B509540953095BA
:1017F00021953F4F4F4F5F4F08959095809570957D
:1018000061957F4F8F4F9F4F08950E94710CA59F48
:10181000900DB49F900DA49F800D911D11240895EB
:10182000B7FF0C94050C0E94050C821B930B0895C6
:101830002F923F924F925F926F927F928F929F92E0
:10184000AF92BF92CF92DF92EF92FF920F931F93CE
:10185000CF93DF93CDB7DEB7CA1BDB0B0FB6F8947F
:10186000DEBF0FBECDBF09942A88398848885F84BF
:101870006E847D848C849B84AA84B984C884DF8030
:10188000EE80FD800C811B81AA81B981CE0FD11D14
:101890000FB6F894DEBF0FBECDBFED010895A1E2F3
:1018A0001A2EAA1BBB1BFD010DC0AA1FBB1FEE1FDA
:1018B000FF1FA217B307E407F50720F0A21BB30B25
:1018C000E40BF50B661F771F881F991F1A9469F7A1
:1018D00060957095809590959B01AC01BD01CF01FD
:1018E0000895A29FB001B39FC001A39F700D811DF9
:1018F0001124911DB29F700D811D1124911D089519
:10190000991B79E004C0991F961708F0961B881F51
:101910007A95C9F780950895EE0FFF1F0590F49111
:10192000E02D09940E94710CB7FF0895821B930B60
:101930000895CF93DF938230910510F482E090E018
:10194000E0915E02F0915F0220E030E0C0E0D0E084
:10195000309711F14081518148175907C0F048175D
:10196000590761F482819381209719F09B838A83C0
:101970002BC090935F0280935E0226C02115310533
:1019800019F04217530718F49A01BE01DF01EF0165
:101990000280F381E02DDCCF2115310509F1281BF0
:1019A000390B2430310590F412968D919C91139748
:1019B0006115710521F0FB019383828304C090932C
:1019C0005F0280935E02FD01329644C0FD01E20F8A
:1019D000F31F81939193225031092D933C933AC088
:1019E00020915C0230915D02232B41F42091020191
:1019F0003091030130935D0220935C02209100013D
:101A0000309101012115310541F42DB73EB74091C8
:101A1000040150910501241B350BE0915C02F0910B
:101A20005D02E217F307A0F42E1B3F0B28173907BE
:101A300078F0AC014E5F5F4F2417350748F04E0F2A
:101A40005F1F50935D0240935C028193919302C0AB
:101A5000E0E0F0E0CF01DF91CF9108950F931F9365
:101A6000CF93DF93009709F48CC0FC013297138267
:101A7000128200915E0210915F020115110581F43E
:101A800020813181820F931F20915C0230915D0291
:101A90002817390779F5F0935D02E0935C0271C075
:101AA000D80140E050E0AE17BF0750F412962D91D8
:101AB0003C911397AD012115310509F1D901F3CFFF
:101AC0009D01DA013383228360817181860F971F24
:101AD0008217930769F4EC0128813981260F371F9B
:101AE0002E5F3F4F318320838A819B819383828342
:101AF000452B29F4F0935F02E0935E0242C01396F7
:101B0000FC93EE931297ED01499159919E01240F98
:101B1000351FE217F30771F480819181840F951FBF
:101B2000029611969C938E938281938113969C9337
:101B30008E931297E0E0F0E0D80112968D919C917F
:101B40001397009719F0F8018C01F6CF8D919C91B5
:101B500098012E5F3F4F820F931F20915C023091BE
:101B60005D022817390769F4309729F410925F0253
:101B700010925E0202C01382128210935D020093E3
:101B80005C02DF91CF911F910F910895A0E0B0E02A
:101B9000ECECFDE00C941C0CEC01009721F4CB0163
:101BA0000E94990CB8C0FC01E60FF71F9C0122505F
:101BB0003109E217F30708F4ACC0D9010D911C916B
:101BC000119706171707B0F00530110508F49FC0EC
:101BD000C80104978617970708F499C002501109A5
:101BE000061B170B019311936D937C93CF010E94F9
:101BF0002E0D8DC05B01A01AB10A4C01800E911E02
:101C0000A0915E02B0915F0240E050E0E12CF12C27
:101C1000109709F44AC0A815B905D1F56D907C90CC
:101C20001197630182E0C80ED11CCA14DB0480F155
:101C3000A3014A195B096A0182E0C80ED11C129601
:101C4000BC9012971396AC91B5E0CB16D10440F03E
:101C5000B282A38351834083D9016D937C930AC0E0
:101C60000E5F1F4FC301800F911FF9019183808385
:101C7000EB2DFA2FE114F10431F0D7011396FC9308
:101C8000EE93129744C0F0935F02E0935E023FC070
:101C90008D919C9111974817590708F4AC017D016B
:101CA00012960D90BC91A02DB3CF80915C029091C3
:101CB0005D0288159905E1F446175707C8F480912D
:101CC000000190910101009741F48DB79EB74091BA
:101CD000040150910501841B950BE817F907C8F41E
:101CE000F0935D02E0935C02F901718360830FC0A1
:101CF000CB010E94990C7C01009759F0A801BE010C
:101D00000E94950ECE010E942E0DC70104C0CE0187
:101D100002C080E090E0CDB7DEB7EEE00C94380C66
:101D200081E090E0F8940C94A50EFB01DC0102C068
:101D300001900D9241505040D8F70895FB01DC010D
:0E1D400001900D920020E1F70895F894FFCF76
:101D4E000000600280005A005A005A005A005A00E1
:101D5E0000000000FF00F90397004601C800A6002E
:101D6E00BA005072657373656420000D0A005265E7
:101D7E006C65617365200069203D20007374657089
:061D8E0073203D2000005F
:00000001FF
