:100000000C9469000C9491000C9491000C94910054
:100010000C9491000C9491000C9491000C9491001C
:100020000C9491000C9491000C9491000C94A805F0
:100030000C9491000C9491000C9491000C949100FC
:100040000C9406050C9491000C9476050C945005C4
:100050000C9491000C9491000C9491000C949100DC
:100060000C9491000C9491008A08AB08CE08F30818
:10007000160939093C090000000023002600290068
:100080000000000800020100000304070000000057
:100090000000000000000000250028002B000000E8
:1000A0000000240027002A000404040404040404BB
:1000B0000202020202020303030303030102040813
:1000C00010204080010204081020010204081020C2
:1000D000690611241FBECFEFD8E0DEBFCDBF11E00F
:1000E000A0E0B1E0E0E3F5E102C005900D92AC3193
:1000F000B107D9F722E0ACE1B1E001C01D92A23313
:10010000B207E1F710E0C9E6D0E004C02197FE0194
:100110000E94840AC836D107C9F70E94E2060C94EF
:10012000960A0C94000090E0FC01E454FF4F2491E7
:10013000FC01E855FF4F8491882399F090E0880FE7
:10014000991FFC01E256FF4FA591B491FC01EC56BA
:10015000FF4F859194918FB7F894EC91E22BEC933B
:100160008FBF0895833081F028F4813099F0823078
:10017000A1F008958730A9F08830B9F08430D1F427
:10018000809180008F7D03C0809180008F77809365
:100190008000089584B58F7702C084B58F7D84BDBB
:1001A00008958091B0008F7703C08091B0008F7D5B
:1001B0008093B0000895CF93DF93282F30E0F901AA
:1001C000E058FF4F8491F901E454FF4FD491F901B5
:1001D000E855FF4FC491CC2391F081110E94B200E9
:1001E000EC2FF0E0EE0FFF1FEA58FF4FA591B491FE
:1001F000EC91ED2381E090E021F480E002C080E00A
:1002000090E0DF91CF9108951F93CF93DF93282F34
:1002100030E0F901E058FF4F8491F901E454FF4FB9
:10022000D491F901E855FF4FC491CC23C9F0162FA2
:1002300081110E94B200EC2FF0E0EE0FFF1FEC5690
:10024000FF4FA591B4918FB7F894111105C09C91FF
:10025000ED2FE095E92302C0EC91ED2BEC938FBFDD
:10026000DF91CF911F9108958E3008F08E508770E6
:10027000806480937C0080917A00806480937A000F
:1002800080917A0086FDFCCF8091780020917900E2
:1002900090E0922B0895CF92DF92EF92FF920F930E
:1002A0001F93CF93DF9360E08BE00E94040184E111
:1002B0000E943401C8EED1E0998B888B85E10E94C1
:1002C00034019B8B8A8B8EE00E9434019D8B8C8B3A
:1002D0008FE00E9434018C01A889B98923EB30E0BA
:1002E0000E948A0ACC24CA9423E0D22EE12CF12C5D
:1002F000A70196010E94150A398B288BAA89BB8910
:1003000023EB30E00E948A0AA70196010E94150A99
:100310003B8B2A8BAC89BD8923EB30E00E948A0A93
:10032000A70196010E94150A3D8B2C8B23E730E034
:10033000D8010E948A0AA70196010E94150ADA01D3
:10034000C9010596A11DB11D9F8B8E8BDF91CF91A9
:100350001F910F91FF90EF90DF90CF9008953FB7DE
:10036000F8948091230190912401A0912501B091EE
:10037000260126B5A89B05C02F3F19F00196A11DA7
:10038000B11D3FBFBA2FA92F982F8827820F911D2B
:10039000A11DB11DBC01CD0142E0660F771F881F72
:1003A000991F4A95D1F708958F929F92AF92BF926D
:1003B000CF92DF92EF92FF926B017C010E94AF011E
:1003C0004B015C01C114D104E104F104F1F00E947D
:1003D000AF01DC01CB0188199909AA09BB09883E44
:1003E0009340A105B10570F321E0C21AD108E108DC
:1003F000F10888EE880E83E0981EA11CB11CC11480
:10040000D104E104F10419F7DDCFFF90EF90DF9004
:10041000CF90BF90AF909F908F900895CF92DF9232
:10042000EF92FF920F931F93CF93DF938C01C0E065
:10043000D0E06B01770FEE08FF08C017D10794F4E6
:1004400061E082E00E940401C701B6010E94D4016C
:1004500060E082E00E940401C701B6010E94D4015D
:100460002196EBCFDF91CF911F910F91FF90EF90ED
:10047000DF90CF900895CF92DF92EF92FF920F938B
:100480001F93CF93DF936C017A018B01C0E0D0E022
:10049000CE15DF0589F0D8016D918D01D601ED9162
:1004A000FC910190F081E02DC6010995892B11F492
:1004B0007E0102C02196ECCFC701DF91CF911F9141
:1004C0000F91FF90EF90DF90CF900895089580E016
:1004D00090E00895FC01538D448D252F30E0842F4A
:1004E00090E0821B930B541710F0CF96089501975C
:1004F0000895FC01918D828D981761F0828DDF0146
:10050000A80FB11D5D968C91928D9F5F9F73928F06
:1005100090E008958FEF9FEF0895FC01918D828DFB
:10052000981731F0828DE80FF11D858D90E00895C8
:100530008FEF9FEF0895FC01918D228D892F90E020
:10054000805C9F4F821B91098F73992708958BE4DC
:1005500091E00E949B0221E0892B09F420E0822F88
:100560000895FC01848DDF01A80FB11DA35ABF4F70
:100570002C91848D90E001968F739927848FA689A2
:10058000B7892C93A089B1898C9180648C93938DC9
:10059000848D981306C00288F389E02D80818F7DB9
:1005A00080830895EF92FF920F931F93CF93DF9371
:1005B000EC0181E0888F9B8D8C8D981305C0E889B4
:1005C000F989808185FD24C0F62E0B8D10E00F5F28
:1005D0001F4F0F731127E02E8C8DE8120CC00FB641
:1005E00007FCFACFE889F989808185FFF5CFCE0134
:1005F0000E94B102F1CF8B8DFE01E80FF11DE35A8D
:10060000FF4FF0820B8FEA89FB898081806207C0EF
:10061000EE89FF896083E889F9898081806480831D
:1006200081E090E0DF91CF911F910F91FF90EF90CB
:100630000895CF93DF93EC01888D8823C9F0EA8970
:10064000FB89808185FD05C0A889B9898C9186FDCB
:100650000FC00FB607FCF5CF808185FFF2CFA889C8
:10066000B9898C9185FFEDCFCE010E94B102E7CF11
:10067000DF91CF91089580E090E0892B29F00E94CE
:10068000A70281110C9400000895CF92DF92EF929F
:10069000FF92CF93DF93EC01603282E078070CF099
:1006A0003DC077FD06C0653B71052CF064EB70E042
:1006B00002C060E070E0898128E830E06901C81A72
:1006C000D10887FDD394CC0CDD1CCC0CDD1C0D2C8B
:1006D000000CEE08FF088A8128E532E0281B31096A
:1006E00087FD3395220F331F220F331FC901330FAC
:1006F000AA0BBB0B9C01AD012C193D094E095F09EA
:10070000DB010E943F0A24EB30E040E050E00E9411
:10071000150AC20ED31EE41EF51EB60188818C3068
:1007200080F5998148E850E0491B510997FD5395A0
:10073000440F551F440F551F6417750784F09A81A5
:1007400028E532E0291B310997FD3395220F331F2D
:10075000220F331FAB01261737070CF4A9014250B3
:100760005109440F551F2FB7F89490E0FC01EE0F8C
:10077000FF1F8E0F9F1FFC01E95DFE4F52834183D7
:100780002FBFDF91CF91FF90EF90DF90CF90089532
:100790008F929F92AF92BF92CF92DF92EF92FF9291
:1007A0000F931F93CF93DF9300D01F92CDB7DEB787
:1007B0008C0149835A836B838B8128E532E0690180
:1007C000C81AD10887FDD394CC0CDD1CCC0CDD1CE1
:1007D0000D2C000CEE08FF088A8128E830E0490162
:1007E000881A910887FD9394880C991C880C991C91
:1007F000092C000CAA08BB0889818F3FC1F090E04A
:10080000FC01EE0FFF1F8E0F9F1FFC01E95DFE4FE5
:100810002181328143E0220F331F4A95E1F754E0F2
:10082000369527955A95E1F72E5F3F4F02C020E09D
:1008300030E02F5F3F4FC901330FAA0BBB0B9C0168
:10084000AD01281939094A095B09A4EBB0E00E94FF
:10085000340AA7019601281939094A095B090E943F
:10086000150A2017310724F4B9016F5F7F4F06C0C6
:10087000021713074CF4B90161507109CE010196BA
:100880000E94450380E001C081E00F900F900F901F
:10089000DF91CF911F910F91FF90EF90DF90CF905C
:1008A000BF90AF909F908F900895EF92FF920F931B
:1008B0001F93CF93DF937B018A01E901BC0188EE8E
:1008C00091E00E944503B7018BEE91E00E94450341
:1008D000B8018EEE91E00E944503BE0181EF91E0E8
:1008E0000E94450364E170E080E090E0DF91CF91E9
:1008F0001F910F91FF90EF900C94D4010F931F93D1
:10090000CF93DF931F92CDB7DEB78C01DC018C91C2
:100910008C3008F055C0862F69830E949300F8013F
:100920008081E82FF0E09F01220F331FE20FF31FB9
:10093000E95DFE4F69816F739081907C692B6083C4
:10094000D80111961C92119712961C926CE00E948D
:10095000780ABCE08B9FB001112440E050E09A017E
:10096000260F371FF901EE0FFF1F2E0F3F1FF90152
:10097000E95DFE4F908196FD16C04F5F5F4F4C3092
:10098000510569F781110FC01092800082E08093B9
:1009900081001092850010928400B19A80916F00BE
:1009A000826080936F00D801EC91F0E0CF01880F56
:1009B000991FE80FF91FE95DFE4F808180648083F5
:1009C000F80180810F90DF91CF911F910F910895D1
:1009D000FC0190911D019C30A0F481E0890F80936F
:1009E0001D019083892F90E0FC01EE0FFF1F8E0FF9
:1009F0009F1FFC01E95DFE4F88EB9BE092838183A2
:100A000008958FEF808308950E94910A1F920F929C
:100A10000FB60F9211242F933F938F939F93AF9311
:100A2000BF9380911F0190912001A0912101B0916D
:100A3000220130911E0123E0230F2D3720F401966F
:100A4000A11DB11D05C026E8230F0296A11DB11DF1
:100A500020931E0180931F0190932001A0932101F8
:100A6000B09322018091230190912401A09125014E
:100A7000B09126010196A11DB11D80932301909391
:100A80002401A0932501B0932601BF91AF919F91BE
:100A90008F913F912F910F900FBE0F901F9018953F
:100AA0001F920F920FB60F9211242F933F934F93E3
:100AB0005F936F937F938F939F93AF93BF93EF93C6
:100AC000FF938BE491E00E94B102FF91EF91BF91FF
:100AD000AF919F918F917F916F915F914F913F91D6
:100AE0002F910F900FBE0F901F9018951F920F928D
:100AF0000FB60F9211242F938F939F93EF93FF9331
:100B0000E0915B01F0915C018081E0916101F091E5
:100B1000620182FD12C09081809164018F5F8F73AA
:100B200020916501821751F0E0916401F0E0E55BEE
:100B3000FE4F958F8093640101C08081FF91EF91FA
:100B40009F918F912F910F900FBE0F901F9018952E
:100B50001F920F920FB60F9211242F933F934F9332
:100B60005F936F937F938F939F93AF93BF93EF9315
:100B7000FF9380911C0187FF05C0109285001092A1
:100B800084001BC020911C01022E000C330B8091AD
:100B90001D0190E02817390784F480911C01082E6C
:100BA000000C990BFC01EE0FFF1F8E0F9F1FFC0125
:100BB000E95DFE4F808186FD15C080911C018F5F2D
:100BC00080931C0120911C01022E000C330B80919C
:100BD0001D0190E028173907C4F480911C018C3066
:100BE00064F113C080911C01082E000C990BFC01CC
:100BF000EE0FFF1F8E0F9F1FFC01E95DFE4F8081EE
:100C000060E08F730E940401D8CF8091840090919E
:100C10008500049680349C4918F480E49CE905C062
:100C20008091840090918500049690938900809330
:100C300088008FEF80931C013BC02091840030918D
:100C4000850080911C01082E000C990BFC01EE0F11
:100C5000FF1F8E0F9F1FFC01E95DFE4F8181928176
:100C6000820F931F909389008093880080911C01CC
:100C7000082E000C990BFC01EE0FFF1F8E0F9F1F1B
:100C8000FC01E95DFE4F808186FF12C080911C014E
:100C9000082E000C990BFC01EE0FFF1F8E0F9F1FFB
:100CA000FC01E95DFE4F808161E08F730E940401C9
:100CB000FF91EF91BF91AF919F918F917F916F9134
:100CC0005F914F913F912F910F900FBE0F901F900A
:100CD0001895EBE4F1E01382128288EE93E0A0E035
:100CE000B0E084839583A683B7838EE091E09183FF
:100CF000808385EC90E09587848784EC90E09787EB
:100D0000868780EC90E0918B808B81EC90E0938BD8
:100D1000828B82EC90E0958B848B86EC90E0978BB5
:100D2000868B118E128E138E148E88EE91E00E94A7
:100D3000E8048BEE91E00E94E8048EEE91E00E94C0
:100D4000E80481EF91E00E94E804E8EEF1E081E040
:100D500084878785858780899189918F808F828913
:100D60009389938F828F84899589958F848F8689C3
:100D70009789978F868F11A210A28AE0E0E0F1E0B8
:100D8000AAE0B2E001900D928A95E1F78AE0E0E0F6
:100D9000F1E0A4E1B2E001900D928A95E1F78AE0DA
:100DA000E0E0F1E0AEE1B2E001900D928A95E1F76A
:100DB0008AE0E0E0F1E0A8E2B2E001900D928A95CD
:100DC000E1F70895789484B5826084BD84B581602C
:100DD00084BD85B5826085BD85B5816085BD809106
:100DE0006E00816080936E0010928100809181007E
:100DF0008260809381008091810081608093810076
:100E0000809180008160809380008091B100846037
:100E10008093B1008091B00081608093B000809198
:100E20007A00846080937A0080917A008260809357
:100E30007A0080917A00816080937A0080917A00B4
:100E4000806880937A001092C100E0915B01F0917C
:100E50005C0182E08083E0915701F091580110829B
:100E6000E0915901F0915A018FEC80831092630157
:100E7000E0915F01F091600186E08083E0915D0187
:100E8000F0915E01808180618083E0915D01F0914D
:100E90005E01808188608083E0915D01F0915E0158
:100EA000808180688083E0915D01F0915E018081A6
:100EB0008F7D808361E08BE00E94040165E070E03B
:100EC00088EE91E00E947E0466E070E08BEE91E097
:100ED0000E947E0469E070E08EEE91E00E947E0444
:100EE0006AE070E081EF91E00E947E048BE00E9456
:100EF000930082E00E94930084E00E94930083E0CC
:100F00000E94930087E00E94930088E00E94930073
:100F10008CE00E94930061E084E00E94040161E0A3
:100F200083E00E94040161E087E00E94040161E027
:100F300088E00E94040161E08CE00E9404010E94AC
:100F40004B0160E08BE00E9404014091E801509168
:100F5000E9016091EA018091F8019091F9010E9404
:100F6000C803082F4091EB015091EC016091ED0115
:100F70008091FA019091FB010E94C803182F4091C3
:100F8000EE015091EF016091F0018091FC01909190
:100F9000FD010E94C803D82F4091F1015091F20148
:100FA0006091F3018091FE019091FF010E94C803BE
:100FB000C82F002321F0112311F0D11101C0C0E08E
:100FC00062E370E080E090E00E94D401CC2309F459
:100FD000BCCF62E370E085E090E00E940E0260E02A
:100FE0008BE00E94040180E10E94DB0021E0892B5C
:100FF00009F420E02093F60181E10E94DB0021E06A
:10100000892B09F420E02093F70160E08BE00E9437
:1010100004010E944B018091F8019091F901E09147
:101020000002F09101026091FA017091FB01409180
:10103000FC015091FD012091FE013091FF018E17BE
:101040009F0759F00E9455048091F8019091F90191
:10105000909301028093000235C0E0910202F0916A
:1010600003026E177F0759F00E9455048091FA0120
:101070009091FB01909303028093020223C0E091C0
:101080000402F09105024E175F0759F00E945504C3
:101090008091FC019091FD019093050280930402E0
:1010A00011C0E0910602F09107022E173F0751F0A0
:1010B0000E9455048091FE019091FF0190930702D8
:1010C000809306028091F6019091F4018917A9F0AE
:1010D00081110FC068EC70E081E090E00E940E0288
:1010E00080910802909109020196909309028093E1
:1010F00008028091F6018093F401E0910802F091DA
:1011000009023197E730F10508F024C1EC5CFF4F8C
:101110000C94840A8091F8019091F90190930B024C
:1011200080930A028091FA019091FB01909315023D
:10113000809314028091FC019091FD0190931F0215
:1011400080931E028091FE019091FF0190932902ED
:1011500080932802FFC08091F8019091F90190934B
:101160000D0280930C028091FA019091FB01909303
:101170001702809316028091FC019091FD019093DB
:101180002102809320028091FE019091FF019093B3
:101190002B0280932A0260E084E022C08091F80153
:1011A0009091F90190930F0280930E028091FA01C1
:1011B0009091FB0190931902809318028091FC0199
:1011C0009091FD0190932302809322028091FE0171
:1011D0009091FF0190932D0280932C0260E083E0B8
:1011E0000E940401B7C08091F8019091F901909399
:1011F0001102809310028091FA019091FB0190936B
:101200001B0280931A028091FC019091FD01909342
:101210002502809324028091FE019091FF0190931A
:101220002F0280932E0260E087E0DACF8091F801F0
:101230009091F90190931302809312028091FA0128
:101240009091FB0190931D0280931C028091FC0100
:101250009091FD0190932702809326028091FE01D8
:101260009091FF01909331028093300260E088E01A
:10127000B7CF60E08CE0B4CFC3E0D0E060E084E0C2
:101280000E94040160E083E00E94040160E087E0C6
:101290000E94040160E088E00E94040160E08CE0AC
:1012A0000E94040168EC70E080E090E00E94D401AC
:1012B00061E084E00E94040161E083E00E94040197
:1012C00061E087E00E94040161E088E00E9404017F
:1012D00061E08CE00E94040168EC70E080E090E046
:1012E0000E94D401219751F661E084E00E9404013C
:1012F00061E083E00E94040161E087E00E94040154
:1013000061E088E00E94040161E08CE00E94040139
:1013100010920902109208026091F8017091F9018F
:101320004091FA015091FB012091FC013091FD01A7
:101330008091FE019091FF01EAE0F2E061937193E8
:1013400051874087338B228B958F848FA2E0E431C5
:10135000FA07A1F78091F701811164C066E970E096
:1013600083E090E00E940E020091080210910902B1
:101370000150110960E08BE00E940401CAE0D2E054
:10138000E12CF12CE016F1060CF046C04091E8018A
:101390005091E9016091EA01888199810E94C80316
:1013A000B82E4091EB015091EC016091ED018A85DE
:1013B0009B850E94C803C82E4091EE015091EF0119
:1013C0006091F0018C899D890E94C803D82EBB20B2
:1013D00011F0C11001C0D12C64E170E080E090E018
:1013E0000E94D401DD2091F24091F1015091F2016F
:1013F0006091F3018E8D9F8D0E94C803D82E64E109
:1014000070E080E090E00E94D401DD2069F38FEF6E
:10141000E81AF80A2296B6CF64EF71E081E090E016
:101420000E940E020E943B03DACD052E97FB1EF4AC
:1014300000940E942C0A57FD07D00E94470A07FC1F
:1014400003D04EF40C942C0A50954095309521957C
:101450003F4F4F4F5F4F08959095809570956195E0
:101460007F4F8F4F9F4F08950E94690AA59F900D4F
:10147000B49F900DA49F800D911D11240895B7FF76
:101480000C94340A0E94340A821B930B0895A1E243
:101490001A2EAA1BBB1BFD010DC0AA1FBB1FEE1FEE
:1014A000FF1FA217B307E407F50720F0A21BB30B39
:1014B000E40BF50B661F771F881F991F1A9469F7B5
:1014C00060957095809590959B01AC01BD01CF0111
:1014D0000895A29FB001B39FC001A39F700D811D0D
:1014E0001124911DB29F700D811D1124911D08952D
:1014F000991B79E004C0991F961708F0961B881F66
:101500007A95C9F780950895EE0FFF1F0590F49125
:10151000E02D09940E94690AB7FF0895821B930B7E
:10152000089581E090E0F8940C94960AF894FFCF27
:101530005A005A005A005A005A0000000000D20215
:0C1540003B026A0219039B0279028D0233
:00000001FF
