:100000000C9462000C948A000C948A000C948A0070
:100010000C948A000C948A000C948A000C948A0038
:100020000C948A000C948A000C948A000C94C605E7
:100030000C948A000C948A000C948A000C948A0018
:100040000C9424050C948A000C9494050C946E0571
:100050000C948A000C948A000C948A000C948A00F8
:100060000C948A000C948A000000000023002600F3
:10007000290000000008000201000003040700003E
:1000800000000000000000000000250028002B00F8
:1000900000000000240027002A00040404040404D3
:1000A0000404020202020202030303030303010227
:1000B00004081020408001020408102001020408F6
:1000C0001020870611241FBECFEFD8E0DEBFCDBFC2
:1000D00011E0A0E0B1E0ECEBF4E102C005900D927C
:1000E000AE31B107D9F723E0AEE1B1E001C01D9216
:1000F000AC39B207E1F710E0C2E6D0E004C02197C6
:10010000FE010E94510AC136D107C9F70E94DC06E0
:100110000C945C0A0C94000090E0FC01E255FF4F47
:100120002491FC01E656FF4F8491882399F090E0DA
:10013000880F991FFC01E057FF4FA591B491FC0176
:10014000EA57FF4F859194918FB7F894EC91E22B89
:10015000EC938FBF0895833081F028F4813099F0BB
:100160008230A1F008958730A9F08830B9F084304A
:10017000D1F4809180008F7D03C0809180008F77C3
:1001800080938000089584B58F7702C084B58F7DF9
:1001900084BD08958091B0008F7703C08091B00036
:1001A0008F7D8093B0000895CF93DF93282F30E0A8
:1001B000F901EE58FF4F8491F901E255FF4FD491B8
:1001C000F901E656FF4FC491CC2391F081110E94B2
:1001D000AB00EC2FF0E0EE0FFF1FE859FF4FA591A9
:1001E000B491EC91ED2381E090E021F480E002C035
:1001F00080E090E0DF91CF9108951F93CF93DF933C
:10020000282F30E0F901EE58FF4F8491F901E255B3
:10021000FF4FD491F901E656FF4FC491CC23C9F0AA
:10022000162F81110E94AB00EC2FF0E0EE0FFF1FA4
:10023000EA57FF4FA591B4918FB7F894111105C0FB
:100240009C91ED2FE095E92302C0EC91ED2BEC930E
:100250008FBFDF91CF911F9108958E3008F08E509F
:100260008770806480937C0080917A0080648093A2
:100270007A0080917A0086FDFCCF809178002091F1
:10028000790090E0922B0895CF92DF92EF92FF9247
:100290000F931F93CF93DF9360E08BE00E94FD00EC
:1002A00084E10E942D01CAEED1E0998B888B85E113
:1002B0000E942D019B8B8A8B8EE00E942D019D8BCD
:1002C0008C8B8FE00E942D018C0128893989ADE447
:1002D000BFEF0E94420ACC24CA9423E0D22EE12C24
:1002E000F12CA70196010E94D309DA01C9018D54AE
:1002F0009F4FAF4FBF4F998B888B2A893B89ADE4C5
:10030000BFEF0E94420AA70196010E94D309DA01B9
:10031000C9018D549F4FAF4FBF4F9B8B8A8B2C8948
:100320003D89ABE3BFEF0E94420AA70196010E94FC
:10033000D309DA01C9018B539F4FAF4FBF4F9D8B3C
:100340008C8B28E230E0D8010E944A0AA70196016E
:100350000E94D309DA01C90188589F4FAF4FBF4FA0
:100360009F8B8E8BDF91CF911F910F91FF90EF901C
:10037000DF90CF9008953FB7F89480912501909138
:100380002601A0912701B091280126B5A89B05C0A0
:100390002F3F19F00196A11DB11D3FBFBA2FA92F04
:1003A000982F8827820F911DA11DB11DBC01CD0181
:1003B00042E0660F771F881F991F4A95D1F708956D
:1003C0008F929F92AF92BF92CF92DF92EF92FF9265
:1003D0006B017C010E94BB014B015C01C114D10483
:1003E000E104F104F1F00E94BB01DC01CB018819AA
:1003F0009909AA09BB09883E9340A105B10570F38C
:1004000021E0C21AD108E108F10888EE880E83E0E5
:10041000981EA11CB11CC114D104E104F10419F708
:10042000DDCFFF90EF90DF90CF90BF90AF909F9087
:100430008F900895CF92DF92EF92FF920F931F93C8
:10044000CF93DF938C01C0E0D0E06B01770FEE0813
:10045000FF08C017D10794F461E082E00E94FD001C
:10046000C701B6010E94E00160E082E00E94FD0049
:10047000C701B6010E94E0012196EBCFDF91CF9139
:100480001F910F91FF90EF90DF90CF900895CF9242
:10049000DF92EF92FF920F931F93CF93DF936C0144
:1004A0007A018B01C0E0D0E0CE15DF0589F0D801DC
:1004B0006D918D01D601ED91FC910190F081E02DBF
:1004C000C6010995892B11F47E0102C02196ECCF5B
:1004D000C701DF91CF911F910F91FF90EF90DF90B7
:1004E000CF900895089580E090E00895FC01538D29
:1004F000448D252F30E0842F90E0821B930B5417FE
:1005000010F0CF96089501970895FC01918D828D8A
:10051000981761F0828DDF01A80FB11D5D968C9157
:10052000928D9F5F9F73928F90E008958FEF9FEF62
:100530000895FC01918D828D981731F0828DE80F1E
:10054000F11D858D90E008958FEF9FEF0895FC01D8
:10055000918D228D892F90E0805C9F4F821B9109A5
:100560008F73992708958DE491E00E94A70221E0FE
:10057000892B09F420E0822F0895FC01848DDF018E
:10058000A80FB11DA35ABF4F2C91848D90E0019606
:100590008F739927848FA689B7892C93A089B189F5
:1005A0008C9180648C93938D848D981306C00288FF
:1005B000F389E02D80818F7D80830895EF92FF92F3
:1005C0000F931F93CF93DF93EC0181E0888F9B8D76
:1005D0008C8D981305C0E889F989808185FD24C038
:1005E000F62E0B8D10E00F5F1F4F0F731127E02EBB
:1005F0008C8DE8120CC00FB607FCFACFE889F98998
:10060000808185FFF5CFCE010E94BD02F1CF8B8D99
:10061000FE01E80FF11DE35AFF4FF0820B8FEA89CC
:10062000FB898081806207C0EE89FF896083E88949
:10063000F98980818064808381E090E0DF91CF91AF
:100640001F910F91FF90EF900895CF93DF93EC01EE
:10065000888D8823C9F0EA89FB89808185FD05C0E2
:10066000A889B9898C9186FD0FC00FB607FCF5CF1C
:10067000808185FFF2CFA889B9898C9185FFEDCF64
:10068000CE010E94BD02E7CFDF91CF91089580E0B7
:1006900090E0892B29F00E94B30281110C94000094
:1006A0000895CF92DF92EF92FF92CF93DF93EC0108
:1006B000603282E078070CF03DC077FD06C0653BF4
:1006C00071052CF064EB70E002C060E070E089819D
:1006D00028E830E06901C81AD10887FDD394CC0C12
:1006E000DD1CCC0CDD1C0D2C000CEE08FF088A81F3
:1006F00028E532E0281B310987FD3395220F331F8F
:10070000220F331FC901330FAA0BBB0B9C01AD0194
:100710002C193D094E095F09DB010E94FD0924EBFC
:1007200030E040E050E00E94D309C20ED31EE41E28
:10073000F51EB60188818C3080F5998148E850E03B
:10074000491B510997FD5395440F551F440F551FE1
:100750006417750784F09A8128E532E0291B310976
:1007600097FD3395220F331F220F331FAB0126173E
:1007700037070CF4A90142505109440F551F2FB7F8
:10078000F89490E0FC01EE0FFF1F8E0F9F1FFC01FD
:10079000E75DFE4F528341832FBFDF91CF91FF90E2
:1007A000EF90DF90CF9008958F929F92AF92BF927B
:1007B000CF92DF92EF92FF920F931F93CF93DF932D
:1007C00000D01F92CDB7DEB78C0149835A836B836B
:1007D0008B8128E532E06901C81AD10887FDD394DE
:1007E000CC0CDD1CCC0CDD1C0D2C000CEE08FF0825
:1007F0008A8128E830E04901881A910887FD93949E
:10080000880C991C880C991C092C000CAA08BB08A0
:1008100089818F3FC1F090E0FC01EE0FFF1F8E0F2A
:100820009F1FFC01E75DFE4F2181328143E0220FD3
:10083000331F4A95E1F754E0369527955A95E1F72D
:100840002E5F3F4F02C020E030E02F5F3F4FC901D5
:10085000330FAA0BBB0B9C01AD01281939094A09BA
:100860005B09A4EBB0E00E94F209A70196012819E8
:1008700039094A095B090E94D3092017310724F47A
:10088000B9016F5F7F4F06C0021713074CF4B9011F
:1008900061507109CE0101960E94510380E001C0B0
:1008A00081E00F900F900F90DF91CF911F910F91EA
:1008B000FF90EF90DF90CF90BF90AF909F908F9080
:1008C0000895EF92FF920F931F93CF93DF937B01D5
:1008D0008A01E901BC018AEE91E00E945103B7014F
:1008E0008DEE91E00E945103B80180EF91E00E94EB
:1008F0005103BE0183EF91E00E94510364E170E077
:1009000080E090E0DF91CF911F910F91FF90EF90E9
:100910000C94E0010F931F93CF93DF931F92CDB7F9
:10092000DEB78C01DC018C918C3008F055C0862F2D
:1009300069830E948C00F8018081E82FF0E09F011C
:10094000220F331FE20FF31FE75DFE4F69816F73C4
:100950009081907C692B6083D80111961C9211972D
:1009600012961C926CE00E94360ABCE08B9FB0018C
:10097000112440E050E09A01260F371FF901EE0FD5
:10098000FF1F2E0F3F1FF901E75DFE4F908196FD7F
:1009900016C04F5F5F4F4C30510569F781110FC092
:1009A0001092800082E08093810010928500109266
:1009B0008400B19A80916F00826080936F00D801AB
:1009C000EC91F0E0CF01880F991FE80FF91FE75D68
:1009D000FE4F808180648083F80180810F90DF91D9
:1009E000CF911F910F910895FC0190911F019C30B0
:1009F000A0F481E0890F80931F019083892F90E0FC
:100A0000FC01EE0FFF1F8E0F9F1FFC01E75DFE4FE5
:100A100088EB9BE09283818308958FEF8083089514
:100A2000009769F0FC0101900020E9F73197AF01D0
:100A3000481B590BBC018DE491E00C94470280E007
:100A400090E008950E94570A1F920F920FB60F92DE
:100A500011242F933F938F939F93AF93BF938091D4
:100A6000210190912201A0912301B09124013091A4
:100A7000200123E0230F2D3720F40196A11DB11D85
:100A800005C026E8230F0296A11DB11D2093200169
:100A90008093210190932201A0932301B09324011C
:100AA0008091250190912601A0912701B091280104
:100AB0000196A11DB11D8093250190932601A0935D
:100AC0002701B0932801BF91AF919F918F913F91E2
:100AD0002F910F900FBE0F901F9018951F920F929D
:100AE0000FB60F9211242F933F934F935F936F9301
:100AF0007F938F939F93AF93BF93EF93FF938DE477
:100B000091E00E94BD02FF91EF91BF91AF919F9143
:100B10008F917F916F915F914F913F912F910F90A6
:100B20000FBE0F901F9018951F920F920FB60F9245
:100B300011242F938F939F93EF93FF93E0915D0187
:100B4000F0915E018081E0916301F091640182FD8A
:100B500012C09081809166018F5F8F732091670131
:100B6000821751F0E0916601F0E0E35BFE4F958F54
:100B70008093660101C08081FF91EF919F918F91D9
:100B80002F910F900FBE0F901F9018951F920F92EC
:100B90000FB60F9211242F933F934F935F936F9350
:100BA0007F938F939F93AF93BF93EF93FF93809126
:100BB0001E0187FF05C010928500109284001BC0A3
:100BC00020911E01022E000C330B80911F0190E03A
:100BD0002817390784F480911E01082E000C990B08
:100BE000FC01EE0FFF1F8E0F9F1FFC01E75DFE4F04
:100BF000808186FD15C080911E018F5F80931E014C
:100C000020911E01022E000C330B80911F0190E0F9
:100C100028173907C4F480911E018C3064F113C089
:100C200080911E01082E000C990BFC01EE0FFF1F96
:100C30008E0F9F1FFC01E75DFE4F808160E08F7388
:100C40000E94FD00D8CF8091840090918500049689
:100C500080349C4918F480E49CE905C080918400AC
:100C600090918500049690938900809388008FEF7F
:100C700080931E013BC020918400309185008091BB
:100C80001E01082E000C990BFC01EE0FFF1F8E0FAA
:100C90009F1FFC01E75DFE4F81819281820F931FB0
:100CA000909389008093880080911E01082E000C8B
:100CB000990BFC01EE0FFF1F8E0F9F1FFC01E75DDC
:100CC000FE4F808186FF12C080911E01082E000C0D
:100CD000990BFC01EE0FFF1F8E0F9F1FFC01E75DBC
:100CE000FE4F808161E08F730E94FD00FF91EF91C4
:100CF000BF91AF919F918F917F916F915F914F9134
:100D00003F912F910F900FBE0F901F901895EDE41B
:100D1000F1E01382128288EE93E0A0E0B0E08483D9
:100D20009583A683B78384E091E09183808385ECEB
:100D300090E09587848784EC90E09787868780ECA5
:100D400090E0918B808B81EC90E0938B828B82EC96
:100D500090E0958B848B86EC90E0978B868B118E40
:100D6000128E138E148E8AEE91E00E94F4048DEEA2
:100D700091E00E94F40480EF91E00E94F40483EF7C
:100D800091E00E94F404EAEEF1E081E08487878537
:100D9000858780899189918F808F82899389938FAC
:100DA000828F84899589958F848F86899789978F7B
:100DB000868F11A210A20895CF93DF93CDB7DEB72F
:100DC000A3970FB6F894DEBF0FBECDBF789484B55D
:100DD000826084BD84B5816084BD85B5826085BD37
:100DE00085B5816085BD80916E00816080936E00C5
:100DF00010928100809181008260809381008091B7
:100E00008100816080938100809180008160809367
:100E100080008091B10084608093B1008091B00027
:100E200081608093B00080917A00846080937A0022
:100E300080917A00826080937A0080917A0081604C
:100E400080937A0080917A00806880937A00109273
:100E5000C100E0915D01F0915E0182E08083E0914C
:100E60005901F0915A011082E0915B01F0915C010F
:100E70008FEC808310926501E0916101F091620135
:100E800086E08083E0915F01F09160018081806164
:100E90008083E0915F01F0916001808188608083B0
:100EA000E0915F01F0916001808180688083E09132
:100EB0005F01F091600180818F7D808361E08BE034
:100EC0000E94FD0065E070E08AEE91E00E948A04D5
:100ED00066E070E08DEE91E00E948A0469E070E0C7
:100EE00080EF91E00E948A046AE070E083EF91E075
:100EF0000E948A048BE00E948C0082E00E948C0099
:100F000084E00E948C0083E00E948C0087E00E94B5
:100F10008C0088E00E948C008CE00E948C0061E0D4
:100F200084E00E94FD0061E083E00E94FD0061E03A
:100F300087E00E94FD0061E088E00E94FD0061E022
:100F40008CE00E94FD000E94440160E08BE00E9462
:100F5000FD004091EA015091EB016091EC0180911C
:100F6000FA019091FB010E94D403E82E4091ED011B
:100F70005091EE016091EF018091FC019091FD0193
:100F80000E94D403F82E4091F0015091F10160913C
:100F9000F2018091FE019091FF010E94D403082F7D
:100FA0004091F3015091F4016091F50180910002AC
:100FB000909101020E94D403182FEE2021F0FF200F
:100FC00011F0011101C010E062E370E080E090E0F8
:100FD0000E94E001112309F4BCCF62E370E085E0D8
:100FE00090E00E941A028AE5F82E9AE0292E312C10
:100FF000412C512C60E08BE00E94FD00ECE0F2E01F
:10100000F192DF01AD59BF4FFC92AC59BF4FFC923A
:10101000AC59BF4FFC9282E0E532F80789F710E047
:1010200080910A0290910B02843691050CF051C117
:1010300060E08BE00E94FD000E9444018091FA0173
:101040009091FB01E0910202F09103026091FC019A
:101050007091FD014091FE015091FF01209100022D
:10106000309101028E179F0759F00E946104809110
:10107000FA019091FB01909303028093020235C024
:10108000E0910402F09105026E177F0759F00E946B
:1010900061048091FC019091FD0190930502809381
:1010A000040223C0E0910602F09107024E175F0789
:1010B00059F00E9461048091FE019091FF0190938C
:1010C00007028093060211C0E0910802F091090224
:1010D0002E173F0751F00E94610480910002909109
:1010E0000102909309028093080280E10E94D400DB
:1010F00021E0892B09F420E02093F801211166C03A
:10110000112321F010920B0210920A0268EC70E099
:1011100081E090E00E941A0282E191E00E941005B5
:1011200080900A0290900B02092C000CAA08BB08C0
:10113000B7FE23C1E0914D01F0914E010190F08185
:10114000E02D6DE28DE491E0099522273327A90176
:10115000281939094A095B0919A28E010F5D1F4F31
:10116000CA01B901A20191010E94050A605DF8015E
:1011700062938F01211531054105510589F7C80199
:101180000E9410058BE191E00E94100580910A02F7
:1011900090910B02FC01E651FE4F2091FA0122A32F
:1011A000DF01AA57BF4F2091FC012C93AC59BF4FD0
:1011B0002091FE012C93E25BFE4F209100022083E0
:1011C000019690930B0280930A0210E081E10E9445
:1011D000D40021E0892B09F420E02093F9012111AA
:1011E0001FCF66E970E083E090E00E941A02A090B1
:1011F0000A02B0900B0260E08BE00E94FD0000E06C
:1012000010E00A151B050CF05CC0C80186519E4F0A
:101210006C014C0196E8890E911C3601EAEE6E0EC7
:10122000711C4091EA015091EB016091EC01F601D3
:1012300082A190E00E94D403382F4091ED0150919B
:10124000EE016091EF01F401808190E03BA30E94E8
:10125000D403282F4091F0015091F1016091F201E7
:10126000F301808190E02AA30E94D403E82E3BA1E1
:101270002AA1332311F0211101C0E12C64E170E0B7
:1012800080E090E00E94E001EE2059F2F2EBCF1AEC
:10129000FEEFDF0A4091F3015091F4016091F501F6
:1012A000F601808190E00E94D403E82E64E170E0B2
:1012B00080E090E00E94E001EE2061F30F5F1F4F9D
:1012C000A0CF64EF71E081E090E00E941A0211E08B
:1012D000A7CE10920B0210920A0203E010E060E029
:1012E00084E00E94FD0060E083E00E94FD0060E079
:1012F00087E00E94FD0060E088E00E94FD0060E061
:101300008CE00E94FD0068EC70E080E090E00E94BC
:10131000E00161E084E00E94FD0061E083E00E9462
:10132000FD0061E087E00E94FD0061E088E00E942E
:10133000FD0061E08CE00E94FD0068EC70E080E060
:1013400090E00E94E0010150110949F661E084E05B
:101350000E94FD0061E083E00E94FD0061E087E003
:101360000E94FD0061E088E00E94FD0061E08CE0E9
:101370000E94FD000E9447033DCEA501940119A2E1
:101380008E010F5D1F4FCA01B901A20191010E9498
:10139000050A605DF80162938F0121153105410551
:1013A000510589F7ECCE052E97FB1EF400940E94A0
:1013B000EA0957FD07D00E94050A07FC03D04EF446
:1013C0000C94EA0950954095309521953F4F4F4F29
:1013D0005F4F089590958095709561957F4F8F4FE1
:1013E0009F4F08950E94270AA59F900DB49F900DCE
:1013F000A49F800D911D11240895B7FF0C94F2094C
:101400000E94F209821B930B0895A1E21A2EAA1BD7
:10141000BB1BFD010DC0AA1FBB1FEE1FFF1FA217A4
:10142000B307E407F50720F0A21BB30BE40BF50BA1
:10143000661F771F881F991F1A9469F7609570952A
:10144000809590959B01AC01BD01CF010895A29FAD
:10145000B001B39FC001A39F700D811D1124911D88
:10146000B29F700D811D1124911D0895991B79E083
:1014700004C0991F961708F0961B881F7A95C9F724
:10148000809508950E94270A332312F48A1B9B0B30
:101490000C944C0A0E94270AB7FF0895821B930BF5
:1014A0000895EE0FFF1F0590F491E02D099481E05F
:0C14B00090E0F8940C945C0AF894FFCFD4
:1014BC0000000000DE02470276022503A702850227
:0E14CC0099025072657373656420000D0A006A
:00000001FF
